:100000000C940C020C9453020C9453020C94530263
:100010000C9453020C9453020C9453020C9453020C
:100020000C9453020C9453020C94052A0C94D82A75
:100030000C9453020C9453020C9453020C945302EC
:100040000C9453020C9453020C9453020C945302DC
:100050000C9453020C943D250C9453020C945302BF
:100060000C9453020C9453020C9453020C945302BC
:100070000C9453020C9453020C9453020C945302AC
:100080000C9453020C9453020C9453020C9453029C
:100090000C9453020C9453020C9453020C9453028C
:1000A0000C9453020C9453020C94530205A84CCDAB
:1000B000B2D44EB93836A9020C50B9918688083CA2
:1000C000A6AAAA2ABE000000803F165C1E001F00E0
:1000D0002000210022002300240025002600270004
:1000E0002D002E002A002B0014001A000800150015
:1000F00017001C0018000C00120013002F00300025
:100100000000015104001600070009000A000B005E
:100110000D000E000F003300340032002800E10013
:1001200001511D001B000600190005001100100000
:1001300036003700380000005200E000E200E30023
:100140000000000000002C00000000000000E7009C
:10015000500051004F00165C3A003B003C003D004F
:100160003E003F0040004100420043004400450083
:100170004C00C25CC55CC75CC95CC35CCB5C010065
:1001800001000100010001000100005C00000151BC
:10019000C65CC85CCA5CC45CCC5C010001000100A8
:1001A00001000100010001000100010001510100F6
:1001B0000100010001000100010001000100010037
:1001C000010000000100A900AA00A8000000000032
:1001D00000000100000000000000E700E600010050
:1001E000E000000000000001010101010101010126
:1001F00002020202020202020203030303030303D8
:1002000003040404040404050505050506060606A2
:100210000607070707080808080909090A0A0A0A59
:100220000B0B0B0C0C0C0D0D0D0E0E0F0F0F1010F9
:10023000111111121213131414151516161717187D
:100240001819191A1A1B1C1C1D1D1E1F1F202021E6
:1002500022222324252526272728292A2B2B2C2D2B
:100260002E2F2F30313233343536363738393A3B4A
:100270003C3D3E3F4041424344464748494A4B4C3F
:100280004D4F50515253555657585A5B5C5E5F6004
:100290006263646667696A6C6D6E70717374767898
:1002A000797B7C7E8081838486888A8B8D8F9192F6
:1002B0009496989A9B9D9FA1A3A5A7A9ABADAFB11A
:1002C000B3B5B7B9BBBDBFC1C4C6C8CACCCFD1D303
:1002D000D6D8DADCDFE1E4E6E8EBEDF0F2F5F7FAA8
:1002E000FCFF0403300000000A03480053003600FE
:1002F0003000000020035900690061006E006300B7
:10030000610072002D004400650073006900670001
:100310006E00730000000403090409023B0002019F
:1003200000A0FA09040000010301010009211101E4
:1003300000012240000705810308000A09040100AA
:1003400001030000000921110100012271000705CD
:10035000820320000A1201100100000008EDFE5780
:100360000201000102030105010980A101850316B4
:1003700001002603001A81002A830075109501816F
:1003800000C0050C0901A1018504160100269C028C
:100390001A01002A9C02751095018100C00501090F
:1003A00006A1018505050719E029E7150025019536
:1003B0000875018102050819012905950575019146
:1003C000029501750391010507190029EF15002514
:1003D0000195F075018102C005010906A10105071B
:1003E00019E029E71500250195087501810295019D
:1003F0007508810105081901290595057501910206
:100400009501750391010507190029FF150026FFC5
:1004100000950675088100C011241FBECFEFDAE0F9
:10042000DEBFCDBF04B603FE27C080910F069091BA
:100430001006A0911106B09112068730904BA7408C
:10044000B04BD1F410920F061092100610921106C4
:100450001092120614BE84B7877F84BF0FB6F8943B
:10046000A895809160008861809360001092600080
:100470000FBEE0E0F8E3099513E0A0E0B1E0EAE6A2
:10048000F1E602C005900D92A632B107D9F726E039
:10049000A6E2B3E001C01D92AF30B207E1F70E94BF
:1004A00034270C94B3300C9400000E94D7078FE1DE
:1004B0009EE40197F1F700C000000E94D70780E09A
:1004C0000E946A0880FF09C084E00E946A0886FFD3
:1004D00004C00E94CF230C94632508950E94550206
:1004E0000C947D020C947E020C947F02089581E0AE
:1004F0000C94DD0980E00C94DD090895089581E0F5
:10050000089581E008950E94D523811102C00E94C0
:100510004F240E9417140C946E020E94481380917D
:100520002603811102C00E947E09109226030C94BA
:1005300072020C94760208950E943D1D0E949B0257
:100540002FEF84E39CE0215080409040E1F700C011
:1005500000000C946325FF920F931F93CF93DF93BA
:100560008C01FC01C081D1818091CE03811150C0EA
:100570008281882309F447C0CE010E948822F82E88
:10058000682FCE010E942E22BE018F2D0E94F604FC
:10059000EC01B8010E947402882309F4D9C0B801A3
:1005A000CE010E948D09882309F4D2C0C93CFCE524
:1005B000DF0709F409C108F072C0C23C9CE5D90705
:1005C00009F4DEC008F041C0C531FCE5DF0728F5BD
:1005D000C2308CE5D80708F01EC1C1159CE5D907CB
:1005E00009F4B1C0C130DC4509F4B9C081E08093A1
:1005F0002C0380932D03C801DF91CF911F910F91A0
:10060000FF900C948102CE010E945D22F82EBCCF97
:10061000CE010E948822BE01B9CFC631DC4531F738
:100620000E941D23F8019281992309F4D1C18A7A8D
:1006300091E009F490E0909327038111C7C189E20A
:100640000E94F8220E946C2383C0C53C8CE5D80729
:1006500009F4A9C0A8F4C33CECE5DE0709F497C08F
:10066000C43CDC4519F6F8018281882309F470C086
:100670000E941D23827209F493C00E94531468C023
:10068000F8018281C73CFCE5DF0709F498C008F453
:1006900091C0882309F45CC00E94F41459C0C63D7F
:1006A000ECE5DE07E8F4CE3CFCE5DF0708F050C0DF
:1006B000CB3C8CE5D80709F497C008F48DC0CC3C3E
:1006C000ECE5DE0709F498C0CD3CDC4509F08ECF9F
:1006D000F80182818823E1F181E00E94621538C02F
:1006E000C93D8CE5D80709F456C1C0F4C73DECE517
:1006F000DE0709F414C1C83DDC4509F077CFF801E5
:100700008281882309F432C110922D030E940725AB
:1007100090932B0380932A0380E20EC1CD3D8CE59C
:10072000D80709F471C0CE3D9CE5D90711F1CC3D45
:10073000DC4509F05BCFF8018281882349F080E035
:100740000E94CD2705C0F801828181110E949C0280
:1007500080E0DF91CF911F910F91FF900895F801F4
:1007600082818823A9F38091610481608093610470
:10077000EFCFF8018281882359F30E944F24E8CFFC
:10078000F8018281882321F30E944514E1CFF8010A
:1007900082818823E9F20E941D23827209F46DCFC1
:1007A0000E946C14D5CFF8018281882389F20E94BF
:1007B0008814CECF882361F20E94B414C9CF882355
:1007C00039F20E94DE14C4CFF8018281882309F433
:1007D000BFCF0E940615BCCFF8018281882309F49F
:1007E000B7CF0E941B15B4CFF8018281882309F48A
:1007F000AFCF0E943415ACCFF8018281882309F471
:10080000A7CF0E944915A4CFF8018281882309F45B
:100810009FCF82E095CFF8018281882309F4EBCE47
:100820000E94D523811102C00E944F240E94E82318
:1008300090E09093010680930006FE01E350FC4592
:10084000809100068160E231F105C8F4E65DFB4F5E
:100850000C94A62F3C0448044C045004540458043F
:100860005C046004640468046C0470047404780418
:100870007C04800484048804809100068260809354
:100880000006809100060E94EC230E943D1D60CF6F
:10089000809100068460F3CF809100068860EFCFDE
:1008A000809100068061EBCF809100068062E7CFE7
:1008B000809100068064E3CF809100068068DFCFDE
:1008C000809100068460EACF809100068E7FD7CFAA
:1008D000809100068D7FD3CF809100068B7FCFCF94
:1008E00080910006877FCBCF809100068F7EC7CF97
:1008F000809100068F7DC3CF809100068F7BBFCF94
:10090000809100068F77BBCF809100068B7FEACF66
:1009100090910006892F97FB87F98058B0CFF80196
:100920008281882361F010922C030E940725909306
:1009300029038093280382E00E94A71A09CF80919F
:100940002C0381110FC080912803909129030E94EC
:100950001325883C910530F486E20E94551986E201
:100960000E94581A82E00E94AE1AF2CE80912D03A6
:1009700081110FC080912A0390912B030E941325AF
:10098000883C910530F487E20E94551987E20E9465
:10099000581A80E2E8CFF80182818111B5CE8091AA
:1009A0002D038111F6CF80912A0390912B030E9491
:1009B0001325883C910568F780E20E94AE1A88E210
:1009C0000E94551988E20E94581AC2CE85E338CE9B
:1009D00080912703811104C089E20E94FF2232CE58
:1009E00085E3FBCF90E080E008950895972F70E0B5
:1009F0002EE0929F600D711D1124FB0196E4899FEA
:100A0000E00DF11D1124EE0FFF1FE653FF4F8591FE
:100A100094910895FC01EE0FFF1FEE51FE4F85915A
:100A200094910895CF93DF930E94F6040E94CE061E
:100A3000EC018115904508F043C0C11580E4D8074A
:100A400008F017C1C83ED10528F5C03ED10508F011
:100A5000A3C0C83AD10580F4C53AD10508F092C0C8
:100A6000C130D10509F498C020F0C430D10508F098
:100A700093C0D0E0C0E090C0CF3BD10508F490C057
:100A8000CE01805C9109C03CD10598F30E940A0513
:100A9000EC0182C0C11520E2D20750F4C11581E0FB
:100AA000D80708F079C0C03FD10518F3D06574C0ED
:100AB000C11520E3D20708F0D2C0CE019F70E6CF67
:100AC000C11585E5D80760F5C11524E5D20708F002
:100AD000FEC0C11582E5D80750F4C11521E5D20743
:100AE00008F4CAC0DC2FCC27C16FD06A55C09C2F38
:100AF000969596959E0123703327C115D34508F02E
:100B0000D7C0C1E0D0E002C0CC0FDD1F2A95E2F7CC
:100B100020E2929FC0011124C82BD92BDC683CC075
:100B2000C11529E5D207A8F4C11588E5D80708F052
:100B3000D3C0C11526E5D20708F09BCF8C2F0E94A9
:100B40004E07C82FD0E0DC2FCC27CC27DF71D06236
:100B500023C0C1158AE5D80708F4C3C0CE0190565A
:100B60008115904208F085CF8D2F8F710E944E071E
:100B7000DD27D06290E0982F882788279F71C82BA7
:100B8000D92B0AC0C53AD10509F4BDC0C63AD10572
:100B900009F4BCC0C3E8D0E4CE01DF91CF91089541
:100BA000C83AD10509F4B5C0C93AD10509F4B4C0B1
:100BB000CA3AD10509F4B3C0CB3AD10509F4B2C0A1
:100BC000CC3AD10509F4B1C0CB3BD10509F4B0C092
:100BD000CC3BD10509F4AFC0CD3AD10509F4AEC084
:100BE000C03BD10509F4ADC0CE3AD10509F4ACC083
:100BF000CF3AD10509F4ABC0C13BD10509F4AAC075
:100C0000C23BD10509F4A9C0C33BD10509F4A8C072
:100C1000C43BD10509F4A7C0C53BD10509F4A6C062
:100C2000C63BD10509F4A5C0C73BD10509F4A4C052
:100C3000C83BD10509F4A3C0C93BD10509F4A2C042
:100C4000CD3BD10509F4A1C0CE3BD10509F4A0C02C
:100C5000CA3BD10509F09FC0CAE2D6E49DCFCE01C0
:100C60009927D3FF03C0EC01D86C96CFEC01D06C70
:100C700093CFDF70D06A90CFCE01F4E09695879540
:100C8000FA95E1F783709C2F937021E030E002C069
:100C9000220F331F9A95E2F73C68382BC695C6950C
:100CA000C37080E2C89FE0011124C22BD32B74CF04
:100CB000C1E0D0E002C0CC0FDD1F2A95E2F720E2B0
:100CC000929FC0011124C82BD92BDA6865CFDC2F85
:100CD000CC27C46FD06A60CFDC2FCC27C06FD06A1E
:100CE0005BCF8C2F8F700E944E0734E0D695C7954E
:100CF0003A95E1F7CF70D0E0DC2FCC27D06A8F7027
:100D0000806EC82B49CFC1E8D0E446CFC2E8D0E41A
:100D100043CFC2EED4E440CFC9EED4E43DCFCAEE17
:100D2000D4E43ACFC5EBD4E437CFC6EBD4E434CF28
:100D3000C3EBD4E431CFC4EBD4E42ECFC7EBD4E47F
:100D40002BCFCCECD4E428CFCDECD4E425CFC3E832
:100D5000D5E422CFCAE8D5E41FCFC2E9D5E41CCF41
:100D6000C4E9D5E419CFC1E2D6E416CFC3E2D6E494
:100D700013CFC4E2D6E410CFC5E2D6E40DCFC6E26D
:100D8000D6E40ACFC7E2D6E407CFCFE6D4E404CF57
:100D9000C0E7D4E401CFC0E0D4E4FECE82389105B0
:100DA00049F1B0F48133910509F45CC048F489320B
:100DB000910509F452C08A32910509F458C008958A
:100DC0008533910509F444C08933910599F008955C
:100DD000833E910531F138F4803E910591F0823ED9
:100DE0009105B1F00895863E910511F1873E910578
:100DF00041F10895209100062370C9F080EE90E043
:100E000008952091000620FF12C089E390E0089524
:100E10002091000622FF0BC024FF2EC090E080E04E
:100E200008952091000622FD2AC024FDF7CF0895E1
:100E30002091000623FFFBCF24FDF0CF87EE90E04A
:100E400008952091000623FFF0CF86EE90E00895EC
:100E50002091000625FD16C008952091000625FD6D
:100E600014C008952091000626FD12C00895209117
:100E7000000626FD10C0089583EE90E0089582EEEE
:100E800090E0089589E290E0089585E390E0089568
:100E90008AE290E0089581E390E0C9CF9091000646
:100EA00092FF06C0282F2871283069F4877F84605C
:100EB00093FF06C0282F2871283161F4877E846152
:100EC00094FD877E0895282F2471243089F78B7F25
:100ED0008860EECF282F2471243191F78B7E8861B2
:100EE000EFCFCF93DF93A9E1B3E02EE133E061E0F0
:100EF00070E09D91E92FE295EF70F0E041A19F70C5
:100F0000EB0102C0CC0FDD1F9A95E2F7CE01809570
:100F1000842381A32A173B0761F7ABE0B3E061E0CC
:100F200070E08D91E82FE295EF70F0E041A18F70B5
:100F30009B0101C0220F8A95EAF7922F9095942386
:100F400091A382A1822B82A3D3E0A931BD0749F7E7
:100F5000109239031092380310922F0310922E032F
:100F600010923B0310923A03109231031092300317
:100F700010923D0310923C031092330310923203FF
:100F800010923F0310923E031092350310923403E7
:100F900010924103109240031092370310923603CF
:100FA00085E00E947408DF91CF910C9483026F92C8
:100FB0007F929F92AF92BF92CF92DF92EF92FF9279
:100FC0000F931F93CF93DF93A8E3B3E099E1692ECA
:100FD00093E0792E20E0EE24E394F12CAD90BC90C8
:100FE000119711961C921E92E30189913E01E82F00
:100FF000E295EF70F0E091A18F70B70101C0660F2C
:101000008A95EAF7892F862B81A382A1962E909448
:10101000892182A3D0EADA95F1F78BE0C82E83E02C
:10102000D82E50E040E0E60139916E01032F029581
:101030000F7010E0E80188A10D911C91119790E0CC
:101040003F7002C0959587953A95E2F780FD3FC0C5
:10105000C701042E02C0880F991F0A94E2F7082BDB
:10106000192B11961C930E934F5F5F4F4E30510515
:10107000D1F681A1892181A382A1682B62A381E09D
:101080004D915C9111974A155B0509F480E0282B7E
:101090001296DEE16D16D3E07D0609F09FCF45E0A4
:1010A0006EE273E088E393E00E9475080E948D026F
:1010B00081E0DF91CF911F910F91FF90EF90DF9032
:1010C000CF90BF90AF909F907F906F90089590E0E9
:1010D00080E0C5CFE82FF0E0EE0FFF1FE25DFC4F90
:1010E00080819181089508950895FF920F931F9331
:1010F000CF93DF93F82E092F162FD72FC42F22233B
:1011000049F081E0809344030E94072590934303B4
:1011100080934203809144038823A1F0809142038D
:10112000909143030E941325069760F0EF2DF02F56
:10113000A12FBD2F90E080E0D0E08C179D0744F0F8
:1011400010924403DF91CF911F910F91FF9008956A
:10115000219131912D933D930196EFCFCF92DF9264
:10116000EF92FF920F931F93CF93DF93E82FF82F07
:1011700071110BC0682F782FDF91CF911F910F91C4
:10118000FF90EF90DF90CF900895062F10E0C72FCB
:10119000D0E0E82EF12CC8016BE270E00E947E2FB7
:1011A0009B014BE2469FC001479F900D1124081BF5
:1011B000190B86E0809FB001819F700D11244FEFC5
:1011C00050E0CA018C1B9D0B8E9DD0018F9DB00DF0
:1011D0009E9DB00D11248B2FC69F8001C79F100DBF
:1011E000D69F100D1124012F11276A01C01AD10AB0
:1011F000CE9C8001CF9C100DDE9C100D11246A0145
:10120000C61AD70ACC9EB001CD9E700DDC9E700D23
:101210001124672F7727461B570B4E9DE0014F9DEA
:10122000D00D5E9DD00D11247D2F2230310521F18E
:1012300048F42115310589F02130310561F07B2F0B
:10124000812F0BC023303105D9F024303105B9F797
:10125000ED2F7B2F17C07E2FE12FF0E0EE51FE4FD8
:101260006491E72FF0E0EE51FE4F7491E82FF0E02B
:10127000EE51FE4F849180CFEB2F8D2F7F2FEDCF3E
:10128000712FEB2F8F2FE9CF88E090E00C94103076
:10129000AB01BC0188E090E00C942E30E5E8F4E06E
:1012A0008FE08083109286048FEF828387ED8383A3
:1012B000148260817181828193810C944809CF935B
:1012C000DF93F9011082ABE1B1E090E02C91322F75
:1012D0003F7038130CC022952F70261308C0C081B0
:1012E000C40FD52FD11D988320812F5F20839F5F4E
:1012F00014969E3359F7DF91CF910895E09124031E
:10130000F09125030994E0912003F09121030994C1
:10131000E0912203F091230309940F931F93CF933D
:10132000DF93CDB7DEB729970FB6F894DEBF0FBEB7
:10133000CDBFFB0182818823B1F09E01275F3F4F23
:101340008E010F5F1F4FA801608181810E945F099C
:101350009985911114C010928E0310928F031092F0
:1013600090031092910381E029960FB6F894DEBFA6
:101370000FBECDBFDF91CF911F910F910895EDE08A
:10138000F1E08291818381E0E630F807D1F789812D
:101390008093060180918D03883008F087E08F5F8D
:1013A00080938D03D8018A2F801B8917A0F6ED91B9
:1013B000F0E0E657FB4F1082F6CF80939603089536
:1013C00040E060E080E00C948809E5E8F4E06081AA
:1013D000862F881F8827881F60918604660F682BD8
:1013E000728183810E94AE08962F672F482F892F24
:1013F0000C948809EF92FF920F931F93CF93DF9382
:101400000AE814E0D0E0C0E082E8E82EF12CF80110
:1014100081918F01F4E08F9FC00111249701281B57
:10142000390B833891050CF020E060918504862FFC
:10143000881F8827881F60918604660F682B620FBB
:101440007FEF809188040E94AE08472F282FCE019D
:101450000E9483092196CE33D105C9F6DF91CF9141
:101460001F910F91FF90EF900895AF92BF92CF928E
:10147000DF92EF92FF920F931F93CF93DF93C09170
:1014800085048C2F881F8827881FC0918604CC0F65
:10149000C82BD09187048AE8A82E84E0B82E10E0EB
:1014A00000E0CC24CA94D12C27EDE22EF12CF501DA
:1014B00081915F01F4E08F9FC00111249601281BE8
:1014C000390B8F3F910519F014F030E020E0409186
:1014D0008804429FC001439F900D1124B7010E94D0
:1014E0007E2F862FBE010E94AE08472F282FC801ED
:1014F0000E9483090F5F1F4F0E331105C1F6DF9164
:10150000CF911F910F91FF90EF90DF90CF90BF9000
:10151000AF900895AF92BF92CF92DF92EF92FF9279
:101520000F931F93CF93DF9360918504862F881FBD
:101530008827881F60918604660F682B7091870446
:10154000809188040E94AE08F62EE72ED82E2091B6
:101550008504221F2227221F30918604432F440F27
:10156000842F822B37FB992790F98C549F4F68E684
:1015700071E00E94922F70918704682F80918804F7
:101580000E94AE08C62EB72EA82E0BE111E0D0E0C7
:10159000C0E0F80183810C5F1F4F90819F3F59F09D
:1015A0002A2D4B2D6C2D80FD03C02D2D4E2D6F2D22
:1015B000CE010E9483092196CE33D10551F7DF91E8
:1015C000CF911F910F91FF90EF90DF90CF90BF9040
:1015D000AF900895DF92EF92FF920F931F93CF93F6
:1015E000DF9380918504881F8827881F9091860447
:1015F000492F440F242F282B97FB332730F9C9019B
:101600008C549F4F68E671E00E94922F821B930BCF
:10161000803891050CF44BC09A9597FD03969595EB
:10162000879595958795C82F80918704281B310948
:1016300037FF02C02D5F3F4F35952795359527958C
:10164000D22FD09088049BE1E92E91E0F92E10E092
:1016500000E0F701828182958F7060918504962F5A
:10166000991F9927991F60918604660F692B8C9F9B
:10167000600D1124709187048D9F700D11248D2DA4
:101680000E94AE08472F282FC8010E9483090F5FD0
:101690001F4FF4E0EF0EF11C0E331105D1F6DF9170
:1016A000CF911F910F91FF90EF90DF9008958138B7
:1016B0004FEF94070CF0B1CF9395AFCFBF92CF927D
:1016C000DF92EF92FF920F931F93CF93DF93F82E49
:1016D000D0918504DD1FDD27DD1F80918604982FC2
:1016E000990FD92B87FB882780F92D2F382FC90117
:1016F0008C549F4F68E671E00E94922F821B930BDF
:1017000097FD03969595879595958795C82FE090B9
:101710008704609189048AE090E0A0E0B0E066234D
:1017200049F070E08AE090E00E94922FCB01770FA1
:10173000AA0BBB0B409192035091930360919403C9
:101740007091950384239523A623B723892B8A2B95
:101750008B2BA1F50E94F82F6EE370E00E94922F70
:10176000D12CC12C082F10E0F11003C00C151D0561
:10177000A1F40E94F82F8370BD2E8C9FB00C112411
:101780000E94F82F6B2D7E2D809188040E94AE0858
:10179000472F282FC6010E9483098FEFC81AD80A45
:1017A0008EE3C816D10401F7DF91CF911F910F91FD
:1017B000FF90EF90DF90CF90BF9008958FEFD0CF44
:1017C000BF92CF92DF92EF92FF920F931F93CF932E
:1017D000DF93209189048091920390919303A091CB
:1017E0009403B091950304C0880F991FAA1FBB1FD3
:1017F0002A95D2F7B82E8BE1E82E81E0F82E0AE880
:1018000014E0D0E0C0E09FE3C92ED12CF701808125
:101810008F3FC1F0F8018081F4E08F9FC001112457
:10182000B601681B790B803491050CF060E06B0DFC
:101830007FEF809188040E94AE08472F282FCE01A9
:101840000E948309219624E0E20EF11C0F5F1F4FD6
:10185000CE33D105D9F6DF91CF911F910F91FF9033
:10186000EF90DF90CF90BF900895AF92BF92CF924C
:10187000DF92EF92FF920F931F93CF93DF9320910C
:1018800089048091920390919303A0919403B09165
:10189000950304C0880F991FAA1FBB1F2A95D2F772
:1018A000B82EA09088040BE111E08AE8E82E84E0CD
:1018B000F82ED0E0C0E09FE3C92ED12CF801808142
:1018C0008F3FD1F0F7018081F4E08F9FC001112498
:1018D000803491052CF59601281B390BC901F801BC
:1018E00061816B0D680F7FEF8A2D0E94AE08472F34
:1018F000282FCE010E94830921960C5F1F4FFFEF16
:10190000EF1AFF0ACE33D105C9F6DF91CF911F91AF
:101910000F91FF90EF90DF90CF90BF90AF90089520
:1019200080E0DDCFAF92BF92CF92DF92EF92FF9235
:101930000F931F93CF93DF9320918904809192039B
:1019400090919303A0919403B091950304C0880FE4
:10195000991FAA1FBB1F2A95D2F7B82EA090880402
:101960000BE111E08AE8E82E84E0F82ED0E0C0E038
:101970009FE3C92ED12CF80180818F3FD1F0F70170
:101980008081F4E08F9FC0011124803491052CF5F3
:101990009601281B390BC901F80162816B0D680F94
:1019A0007FEF8A2D0E94AE08472F282FCE010E947C
:1019B000830921960C5F1F4FFFEFEF1AFF0ACE330A
:1019C000D105C9F6DF91CF911F910F91FF90EF9054
:1019D000DF90CF90BF90AF90089580E0DDCF2F9241
:1019E0003F924F925F926F927F928F929F92AF92AF
:1019F000BF92CF92DF92EF92FF920F931F93CF93FC
:101A0000DF93309087042090880460919203709156
:101A1000930380919403909195030E94A62D2BED42
:101A20003FE049E450E40E94732E20E030E040E0C3
:101A30005CE30E94732E6B017C010E94F92C20E074
:101A400030E040E05DE30E94732E2B013C01C701B2
:101A5000B6010E94E02E20E030E040EE52E40E9409
:101A6000FE2C4B015C01CBE1D1E010E000E06A818B
:101A700070E090E080E00E94A82D20E030E040E09F
:101A800052E40E948C2CA30192010E94732E6B01E0
:101A90007C01698170E090E080E00E94A82D20E048
:101AA00030E040EE52E40E948C2CA50194010E948B
:101AB000732E9B01AC01C701B6010E948D2C20E062
:101AC00030E044E353E40E94732E6B017C0180916B
:101AD0008504881F8827881F90918604292F220F4C
:101AE000622F682B97FB772770F9072E000C880B65
:101AF000990B0E94A82D9B01AC01C701B6010E9461
:101B00008D2C0E94772D732D822D0E94AE08472FB9
:101B1000282FC8010E9483090F5F1F4F24960E33A0
:101B2000110509F0A4CFDF91CF911F910F91FF9084
:101B3000EF90DF90CF90BF90AF909F908F907F906D
:101B40006F905F904F903F902F9008952F923F920B
:101B50004F925F926F927F928F929F92AF92BF92BD
:101B6000CF92DF92EF92FF920F931F93CF93DF9369
:101B700000D000D000D01F92CDB7DEB720908704F0
:101B8000809188048D83609192037091930380917A
:101B90009403909195030E94A62D2BED3FE049E41C
:101BA00050E40E94732E20E030E040E05CE30E94AD
:101BB000732E6B017C010E94F92C2B013C01C701A3
:101BC000B6010E94E02E69837A838B839C83EBE1CC
:101BD000F1E0FF83EE8310E000E0EE81FF813180D1
:101BE000B28060918904C12CD12C80ECE82E8FE367
:101BF000F82E662369F070E090E080E00E94A82D46
:101C000020E030E040EC5FE30E94732E6B017C012A
:101C10006B2D70E090E080E00E94A82D20E030E085
:101C200040E052E40E948C2CA70196010E94732E82
:101C3000A30192010E94732E4B015C01632D70E0A1
:101C400090E080E00E94A82D20E030E040EE52E4D9
:101C50000E948C2CA70196010E94732E29813A8143
:101C60004B815C810E94732E9B01AC01C501B401C4
:101C70000E948D2C6B017C0180918504881F882730
:101C8000881F90918604292F220F622F682B97FBC3
:101C9000772770F9072E000C880B990B0E94A82D4E
:101CA0009B01AC01C701B6010E948D2C0E94772DCB
:101CB000722D8D810E94AE08472F282FC8010E94E7
:101CC00083090F5F1F4F8E819F8104969F838E83B0
:101CD0000E33110509F081CF27960FB6F894DEBFB9
:101CE0000FBECDBFDF91CF911F910F91FF90EF906D
:101CF000DF90CF90BF90AF909F908F907F906F902C
:101D00005F904F903F902F9008952F923F924F9267
:101D10005F926F927F928F929F92AF92BF92CF927B
:101D2000DF92EF92FF920F931F93CF93DF9300D038
:101D300000D01F92CDB7DEB7209187042A8380910F
:101D400088048B8360919203709193038091940334
:101D5000909195030E94A62D2BED3FE049E450E4BD
:101D60000E94732E20E030E040E05CE30E94732E7E
:101D70006B017C010E94F92C2B013C01C701B601CB
:101D80000E94E02E4B015C01EBE1F1E0FD83EC836E
:101D900010E000E0EC81FD81F181F983EC81FD81AF
:101DA000328020908904C12CD12CE12C20E4F22E29
:101DB000222061F0622D70E0660F771F072E000C65
:101DC000880B990B0E94A82D6B017C01632D70E09C
:101DD00090E080E00E94A82D20E030E040E052E456
:101DE0000E948C2CA70196010E94732EA3019201E0
:101DF0000E94732E6B017C01222009F47CC0312CDF
:101E0000220C331CF9816F2F70E090E080E00E947B
:101E1000A82D20E030E040EE52E40E948C2C0E947D
:101E2000702D9B0177FF04C022273327261B370B19
:101E300082E490E0821B930B829DB001839D700D24
:101E4000929D700D1124072E000C880B990B0E9497
:101E5000A82DA50194010E94732EA70196010E944E
:101E60008D2C6B017C0180918504881F8827881F39
:101E700090918604292F220F622F682B97FB7727DA
:101E800070F9072E000C880B990B0E94A82D9B015E
:101E9000AC01C701B6010E948D2C0E94772D7A817A
:101EA0008B810E94AE08472F282FC8010E9483090A
:101EB0000F5F1F4F8C819D8104969D838C830E3311
:101EC000110509F067CF0F900F900F900F900F90B2
:101ED000DF91CF911F910F91FF90EF90DF90CF9006
:101EE000BF90AF909F908F907F906F905F904F903A
:101EF0003F902F90089582E0282E312C83CF2F928F
:101F00003F924F925F926F927F928F929F92AF9289
:101F1000BF92CF92DF92EF92FF920F931F93CF93D6
:101F2000DF9300D01F92CDB7DEB720908704809159
:101F30008804898360919203709193038091940344
:101F4000909195030E94A62D20E030E040E85BE3ED
:101F50000E94732E20E030E040E653E40E94732E8E
:101F60002B013C01EBE1F1E0FB83EA8310E000E0B0
:101F7000EA81FB813180B28060918904C12CD12C2F
:101F800080ECE82E8FE3F82E662369F070E090E095
:101F900080E00E94A82D20E030E040EC5FE30E944A
:101FA000732E6B017C016B2D70E090E080E00E944D
:101FB000A82D20E030E040E052E40E948C2C0E94EA
:101FC000702D9B0177FF04C022273327261B370B78
:101FD000B901330F880B990B0E94A82DA701960118
:101FE0000E94732E2EE23DEB4BEB53EB0E94732EBF
:101FF0004B015C01632D70E090E080E00E94A82D11
:10200000A30192010E948C2CA70196010E94732EBD
:102010009B01AC01C501B4010E948C2C6B017C01B9
:1020200080918504881F8827881F90918604292F16
:10203000220F622F682B97FB772770F9072E000C71
:10204000880B990B0E94A82D9B01AC01C701B6011A
:102050000E948D2C0E94772D722D89810E94AE08DE
:10206000472F282FC8010E9483090F5F1F4F8A81C5
:102070009B8104969B838A830E33110509F078CFE8
:102080000F900F900F90DF91CF911F910F91FF90C4
:10209000EF90DF90CF90BF90AF909F908F907F9008
:1020A0006F905F904F903F902F900895EF92FF9226
:1020B0000F931F93CF93DF93F82E609189048AE0EA
:1020C00090E0A0E0B0E0662349F070E08AE090E0A4
:1020D0000E94922FCB01770FAA0BBB0B409192036A
:1020E00050919303609194037091950384239523F9
:1020F000A623B723892B8A2B8B2B59F50E94F82F07
:102100006EE370E00E94922F10E000E0C82FD0E054
:10211000F11003C0C017D10781F40E94F82FE82EF8
:102120000E94F82F6E2D782F809188040E94AE08AF
:10213000472F282FC8010E9483090F5F1F4F0E33BE
:10214000110531F7DF91CF911F910F91FF90EF9023
:1021500008958FEFD9CF6F927F928F929F92AF9217
:10216000BF92CF92DF92EF92FF920F931F93CF9384
:10217000DF9300D0CDB7DEB7882371F040E060E098
:1021800080E00E948809E7E4F3E086E4DF011D9225
:102190008A95E9F71092460387E4E82E83E0F82E4B
:1021A000812C77247A9490EDC92ED12C20EC622ECC
:1021B0003FE2A32EB12C8701912C911074C0809125
:1021C0004603811170C00E94F82F853595400CF0B0
:1021D0006AC0F70170829E012F5F3F4FAE014E5FD4
:1021E0005F4F682D892D0E945F09F80121918F01B1
:1021F000EA81213D08F45FC0205D330B629EC0017F
:10220000639E900D1124B5010E947E2F262F4FEF63
:102210008E2F90E00E9483099394F5E09F12CDCF1A
:10222000839425E0E20EF11C8EE08812C4CF8091E9
:1022300046038F5F8D3108F448C0109246038CEF3F
:102240009FEF24E066E473E04EEFFB01E81BF90B1F
:102250003EE0243051F4DF01A80FB91F15965C91C0
:1022600015975F3F11F415964C9350815F3F11F421
:1022700040835183315035963111EBCF2150019677
:102280002111E3CF0F900F90DF91CF911F910F910C
:10229000FF90EF90DF90CF90BF90AF909F908F9086
:1022A0007F906F900895D8018C9181508E3F08F0F7
:1022B00092CF8C9390CF279DC0011124B6010E942C
:1022C0007E2F462F20E060E0A3CF80934603DACF35
:1022D0002F923F924F925F926F927F928F929F9236
:1022E000AF92BF92CF92DF92EF92FF920F931F9324
:1022F000CF93DF93CDB7DEB72B970FB6F894DEBF41
:102300000FBECDBF209187042D833BE1E32E31E04A
:10231000F32E10E000E0F70191818281F0918D03AE
:10232000FC8326E031E03B832A8319821B861A86D0
:10233000312C212CE92FF0E0FF83EE83282F30E0B1
:10234000398728872C813981231343C06091850404
:10235000862F881F8827881F60918604660F682B48
:10236000620D8A859B85009709F498C08F3F91057F
:1023700029F020F02FEF30E03B872A878A857D8186
:102380000E94AE08472F282FC8010E9483090F5FC3
:102390001F4F34E0E30EF11C0E33110509F0BBCFE3
:1023A0002B960FB6F894DEBF0FBECDBFDF91CF9155
:1023B0001F910F91FF90EF90DF90CF90BF90AF9063
:1023C0009F908F907F906F905F904F903F902F9055
:1023D0000895EA81FB818191FB83EA83C82ED12C89
:1023E000C601880F991F880F991F9C01255E3E4FDB
:1023F0005901F90181816E817F81681B7109072E66
:10240000000C880B990B0E94A82D2B013C01F501B3
:10241000828168857985681B7109072E000C880BFD
:10242000990B0E94A82D4B015C01A3019201C301ED
:10243000B2010E94732E2B013C01A5019401C5013C
:10244000B4010E94732E9B01AC01C301B2010E9432
:102450008D2C0E94EE2EF601E657FB4FC080F4E073
:10246000CF9E600111240E94772DC601861B970B19
:102470008F3F910519F010F08FEF90E0280E391E74
:102480002FEF30E0281B390BEA85FB85E20FF31FA5
:10249000FB87EA87F981FF5FF98354CF80E06FCF34
:1024A00081E090918D03911101C080E080938D03B4
:1024B0000C9468112F923F924F925F926F927F928D
:1024C0008F929F92AF92BF92CF92DF92EF92FF9244
:1024D0000F931F93CF93DF93CDB7DEB72A970FB635
:1024E000F894DEBF0FBECDBF90908504991C99244F
:1024F000991C80918604880F982A809087042BE18C
:1025000031E03A83298310E000E0E981FA8191818A
:102510008281A0908D0326E031E03C832B83B12C97
:102520001A861986E92FF0E0FE83ED83282F30E02C
:1025300038872F83AB103CC029853A8580E0211570
:10254000310549F02F3F310529F020F0EFEFF0E0A1
:10255000FA87E9878985692D782D0E94AE08472F73
:10256000282FC8010E9483090F5F1F4F29813A81DC
:102570002C5F3F4F3A8329830E33110531F62A969B
:102580000FB6F894DEBF0FBECDBFDF91CF911F9184
:102590000F91FF90EF90DF90CF90BF90AF909F9002
:1025A0008F907F906F905F904F903F902F90089505
:1025B000EB81FC812190FC83EB83312CC101880FDE
:1025C000991F880F991F9C01255E3E4F6901F901F3
:1025D00081816D817E81681B7109072E000C880B3B
:1025E000990B0E94A82D2B013C01F60182816F817D
:1025F0007885681B7109072E000C880B990B0E94C7
:10260000A82D6B017C01A3019201C301B2010E94BC
:10261000732E2B013C01A7019601C701B6010E9450
:10262000732E9B01AC01C301B2010E948D2C0E944C
:10263000EE2EF101E657FB4FC080F4E0CF9E600123
:1026400011240E94772DC601861B970B8F3F9105A1
:1026500019F010F08FEF90E02FEF30E0281B390BCE
:10266000E985FA85E20FF31FFA87E987B39462CF11
:1026700081E090918D03911101C080E080938D03E2
:102680000C945A12089508950E9442130C94431317
:10269000CF93DF93E0918504E0FD0CC00E94E00938
:1026A0000E94441380918504817080930501DF911D
:1026B000CF91089580914503843120F48F5F8093FA
:1026C0004503F5CF8091920390919303A0919403D9
:1026D000B09195030196A11DB11D80939203909333
:1026E0009303A0939403B093950380918E039091EC
:1026F0008F03A0919003B09191038F3F2FEF92072A
:10270000A207B20759F00196A11DB11D80938E0357
:1027100090938F03A0939003B093910380918D03C6
:10272000AAE8B4E028EC34E09D919F3F51F09E3F31
:1027300021F4811101C081E08150ED0121979F5F5B
:1027400098832A173B0781F780938D03C0919603E6
:10275000E695EF73C111E0E0809104018E1327C06C
:1027600081E090910501913009F480E08170E0935F
:10277000040191E090930501E150E331E0F4F0E0D1
:10278000EC53FC4E0C94A62FD913E113E413E7137A
:10279000EA13ED13F013F313F613F913FC13FF13FD
:1027A0000214051408140B140E141114141481E0EF
:1027B000DDCF0E94E509C1117ACFDF91CF910C9452
:1027C00044130E948A0AF7CF0E94EF0CF4CF0E94B4
:1027D000EA0AF1CF0E945E0BEECF0E94E00BEBCF36
:1027E0000E94350CE8CF0E94920CE5CF0E94A60D06
:1027F000E2CF0E94850EDFCF0E947F0FDCCF0E94C8
:102800005610D9CF0E94AB10D6CF0E94FA09D3CF71
:102810000E94350AD0CF0E945012CDCF0E9468117D
:10282000CACF0E943813C7CF0E945A12C4CFE0917A
:102830001E03F0911F030995EAE8F4E08FEF8193FE
:1028400094E0E83CF907D9F70E94D523811104C030
:102850000E944F240E944E090E94440960938504FF
:102860007093860480938704909388046E7761F454
:102870000E944E090E944409609385047093860467
:1028800080938704909388040895E5E8F4E09081AC
:10289000892F8E7F90FF816080836081718182812A
:1028A00093810C94480980918504982F96959F5F99
:1028B0009F738178943170F4990F892B80938504EC
:1028C00060918504709186048091870490918804BA
:1028D0000C9448098260F2CF90918504892F8695E7
:1028E000815C8F73880F9178892B80938504982F52
:1028F0009E7721F4817886628093850460918504B7
:102900007091860480918704909188040C94480902
:1029100080918504982F991F9927991F809186048B
:10292000880F892B90E008968F3F910519F014F0DD
:102930008FEF90E02091850480FB27F92093850498
:10294000282F2695809186048078822B90FB87F92A
:102950008093860460918504709186048091870439
:10296000909188040C94480980918504982F991FB0
:102970009927991F80918604880F892B8850990B7D
:1029800097FF02C090E080E02091850480FB27F94A
:1029900020938504282F2695809186048078822BA9
:1029A00090FB87F98093860460918504709186047A
:1029B00080918704909188040C9448098091870441
:1029C00090E008968F3F910519F014F08FEF90E09A
:1029D00080938704609185047091860480918704B8
:1029E000909188040C944809809187048850990B31
:1029F00097FD80E080938704609185047091860440
:102A000080918704909188040C94480980918804EF
:102A100090E00896883D910514F087ED90E0809352
:102A20008804609185047091860480918704909158
:102A300088040C944809809188048850990B97FF6A
:102A400002C090E080E0883D910514F087ED90E0B1
:102A50008093880460918504709186048091870436
:102A6000909188040C9448098091890490E0019623
:102A70008430910514F083E090E0809389046091A4
:102A800085047091860480918704909188040C9449
:102A90004809809189048150990B97FF02C090E00A
:102AA00080E08430910514F083E090E08093890405
:102AB00060918504709186048091870490918804C8
:102AC0000C944809E5E8F4E08F73982F990F808102
:102AD0008178892B808360817181828193810C94BC
:102AE000480965E784E70C940C17CF930E944317BD
:102AF00084E70E94BE1585E70E94BE15C0E021E074
:102B000041E061E08C2F0E945016CF5FCE33B9F7C1
:102B100065E784E7CF910C941F17E8EEF5E060833A
:102B2000418324E630E042E050E0BF01880F0C947E
:102B3000CD170F931F93CF93DF93082F000FEB0157
:102B400014E21093E805E9EEF5E0DE018D91819342
:102B500085E0E93FF807D1F724E630E041E150E0B5
:102B600068EE75E0802F0E94CD17105F6096143BD1
:102B700041F7DF91CF911F910F910895CF93DF938C
:102B8000C82F4BE06DEF0E948D1540E06AE08C2F5E
:102B90000E948D158FE39CE90197F1F700C00000BA
:102BA00040E060E08C2F0E948D1540E061E08C2FAA
:102BB0000E948D1540E066E08C2F0E948D1540E04C
:102BC0006DEF8C2F0E948D15D0E040E06D2F8C2F83
:102BD0000E948D15DF5FD231C1F740E06D2F8C2F41
:102BE0000E948D15DF5FD432C1F740E06D2F8C2F2E
:102BF0000E948D15DF5FD43BC1F74BE06DEF8C2F4A
:102C00000E948D1541E06AE08C2F0E948D1540E0F6
:102C10006DEF8C2FDF91CF910C948D158E33910534
:102C200020F5880F991F880F991FFC01ED5EFD4F5D
:102C30005281338180818370E18170E9879FC00177
:102C4000112488539B4FE80FF92FF11DB49760832F
:102C5000FC01E50FF11DB4974083830F911DFC012A
:102C6000B497208381E08093BC030895FF920F9373
:102C70001F93CF93DF93182F062FF42ED0E0C0E0E0
:102C80002F2D402F612FCE010E940E162196CE339C
:102C9000D105B1F7DF91CF911F910F91FF9008956A
:102CA0008F929F92AF92BF92CF92DF92EF92FF925C
:102CB0000F931F93CF93DF93862E082F10E0F80118
:102CC000EE0FFF1FEE0FFF1FED5EFD4F8181682F9E
:102CD0006452770B6B01628170E0CB018497EC0149
:102CE00097FD279673E0D595C7957A95E1F76381AF
:102CF00070E07B01A4E2EA1AF108F701F7FC3796CD
:102D000033E0F595E7953A95E1F758E0A52EB12C1B
:102D1000B5010E94922F982EC701B5010E94922FF3
:102D2000382F000F111F000F111FD801AD5EBD4FCE
:102D30008C918370E82EF12C8601D7FE02C0095FCA
:102D40001F4F83E0159507958A95E1F752E15E9D47
:102D5000C0015F9D900D112488569C4F080F192FBC
:102D6000111DD801BC90C60168E070E00E94922F4E
:102D700061E070E0DB0102C0AA0FBB1F8A95E2F799
:102D8000CD01882009F43FC08B29D8018C9352E1F2
:102D90005E9DC0015F9D900D112488569C4FC80F09
:102DA000D92FD11D588181E090E001C0880F9A94FD
:102DB000EAF7442359F1852B888342E14E9DC001F7
:102DC0004F9D900D112488569C4FE80FF92FF11D4F
:102DD000408181E090E001C0880F3A95EAF7222314
:102DE000C1F0842B808381E080939703DF91CF91A2
:102DF0001F910F91FF90EF90DF90CF90BF90AF9019
:102E00009F908F90089580958B21BFCF80958523CB
:102E1000D3CF80958423E6CFCF93C62F9091BC0368
:102E2000992349F068EC74E00E94991568E575E013
:102E30008C2F0E9499151092BC03CF910895FF9298
:102E40000F931F93CF93DF93F82ED62F8091970384
:102E5000882399F008E913E0C0E0F80141918F015F
:102E60006C2F8F2D0E948D15F80141896C2F8D2FAD
:102E70000E948D15CF5FC23181F7DF91CF911F91F5
:102E80000F91FF9008951092B9008CE08093B800E4
:102E90000895EF92FF920F931F93CF93DF93182F14
:102EA000EB011092BC0084EA8093BC000E940725CD
:102EB0007C018091BC0087FF0DC08091B900887FA4
:102EC0008830D9F08091B900887F8031B1F08FEFE0
:102ED0009FEF0CC0CF3FDC0761F30E9407258E19DE
:102EE0009F098C179D0728F38EEF9FEFDF91CF91FD
:102EF0001F910F91FF90EF9008951093BB0084E80D
:102F00008093BC000E9407258C018091BC0087FF44
:102F10000AC08091B900887F883111F08034B9F6F9
:102F200090E080E0E3CFCF3FDC0779F30E940725F4
:102F3000801B910B8C179D0740F3D6CF0F931F93E7
:102F4000CF93DF93EB018093BB0084E88093BC00B8
:102F50000E9407258C018091BC0087FF11C0209141
:102F6000B900287F81E090E0283211F490E080E001
:102F7000919581959109DF91CF911F910F910895BE
:102F8000CF3FDC0741F30E940725801B910B8C1774
:102F90009D0708F38EEF9FEFEECFCF92DF92EF9277
:102FA000FF920F931F93CF93DF936B018A017901F7
:102FB000B9010E944917E6010C0D1D1DC017D1076C
:102FC00061F424E92093BC00DF91CF911F910F9110
:102FD000FF90EF90DF90CF90089597FDF2CFB7016B
:102FE00089910E949E17EACF9093C2038093C103F8
:102FF0000895E091C103F091C203309721F0019050
:10300000F081E02D099480E00895E091C103F091F2
:10301000C203309799F020911A01222359F0209190
:10302000000627FF07C0DC012C9111962C93119705
:1030300025E02C930280F381E02D099408952091DE
:10304000BF033091C0032817390771F09093C00374
:103050008093BF03E091C103F091C203309721F048
:103060000680F781E02D099408952091BD033091E9
:10307000BE032817390771F09093BE038093BD03F8
:10308000E091C103F091C203309721F00084F185F3
:10309000E02D0994089585B7806885BF85B780685D
:1030A00085BF0895089508950C94521808950C94BE
:1030B00056180E944B180E9453180C94541881E023
:1030C00008950E94FE240E9471070E9487250C9497
:1030D00057185F926F927F928F929F92AF92BF929A
:1030E000CF92DF92EF92FF920F931F93CF93DF93D4
:1030F000CDB7DEB72A970FB6F894DEBF0FBECDBFAF
:103100000E94D7070E945F18882309F478C094ECC6
:10311000A92E93E0B92E10E000E088248394912C2E
:10312000502E802F0E946A087C01F501C190D19039
:103130005F01C816D90609F45CC08091610481FD65
:103140000E94730890E080E0CE24DF243401082E32
:1031500002C0660C771C0A94E2F7960126213721FB
:10316000232B09F441C08E835F82E620F72081E0A3
:10317000EF2809F480E088870E9407258160782F76
:103180009A8789874E815F8168858A850E94261982
:10319000000F111FF801EC53FC4F808191816826CC
:1031A0007926718260820E94F9179091C303891772
:1031B000B9F10E94F9178093C3032A960FB6F894C9
:1031C000DEBF0FBECDBFDF91CF911F910F91FF905A
:1031D000EF90DF90CF90BF90AF909F908F907F90B7
:1031E0006F905F900C94990201968E30910509F0D2
:1031F000ADCF0F5F1F4F0530110509F091CF8FEF55
:1032000089838A831B820E9407258160782F9D8392
:103210008C8349815A816B818D810E942619C3CF8D
:103220002A960FB6F894DEBF0FBECDBFDF91CF91C7
:103230001F910F91FF90EF90DF90CF90BF90AF90D4
:103240009F908F907F906F905F900895CF93DF93C2
:10325000CDB7DEB72B970FB6F894DEBF0FBECDBF4C
:103260004F83588769877A878B871E821D8285E006
:10327000FE013796DE01119601900D928A95E1F7D5
:1032800049815A816B817C818D819E812B960FB6FD
:10329000F894DEBF0FBECDBFDF91CF910C94FF1F1E
:1032A000FC01808191810C94CA22882309F4FFC01B
:1032B0008238B9F40E94F91781FDF9C089E30E94B0
:1032C000F8220E946C232FEF81EE94E02150804081
:1032D0009040E1F700C0000089E30E94FF220C94B7
:1032E0006C238338A1F40E94F91780FDE0C083E5C8
:1032F0000E94F8220E946C232FEF81EE94E021506F
:1033000080409040E1F700C0000083E5E6CF8438BC
:10331000A1F40E94F91782FDCAC087E40E94F82236
:103320000E946C232FEF81EE94E02150804090406A
:10333000E1F700C0000087E4D0CF9CEF980F913AEE
:1033400018F40E94F822CBCF90E2980F983050F4F6
:10335000877091E001C0990F8A95EAF7892F0E9442
:103360002023BDCF9BE5980F933070F4853A31F060
:10337000863A39F083E890E00C941F1881E890E0D9
:10338000FBCF82E890E0F8CF98E5980F973108F0EE
:103390008EC0883A09F446C0893A09F446C08A3A90
:1033A00009F446C08B3A09F446C08C3A09F446C089
:1033B0008B3B09F446C08C3B09F446C08D3A09F4B6
:1033C00046C0803B09F446C08E3A09F446C08F3AA5
:1033D00009F446C0813B09F446C0823B09F446C06B
:1033E000833B09F446C0843B09F446C0853B09F49D
:1033F00046C0863B09F446C0873B09F446C0883B7B
:1034000009F446C0893B09F446C08D3B09F446C027
:103410008E3B09F446C08A3B09F446C090E080E048
:103420000C94351882EE90E0FBCF89EE90E0F8CF57
:103430008AEE90E0F5CF85EB90E0F2CF86EB90E05E
:10344000EFCF83EB90E0ECCF84EB90E0E9CF87EB1C
:1034500090E0E6CF8CEC90E0E3CF8DEC90E0E0CF15
:1034600083E891E0DDCF8AE891E0DACF82E991E06C
:10347000D7CF84E991E0D4CF81E292E0D1CF83E24B
:1034800092E0CECF84E292E0CBCF85E292E0C8CF4B
:1034900086E292E0C5CF87E292E0C2CF8FE690E06D
:1034A000BFCF80E790E0BCCF8AE292E0B9CF089529
:1034B000882309F44BC0823871F40E94F91781FF08
:1034C00045C089E30E94F8220E946C2389E30E9490
:1034D000FF220C946C23833859F40E94F91780FF63
:1034E00035C083E50E94F8220E946C2383E5EFCF6C
:1034F000843859F40E94F91782FF28C087E40E949B
:10350000F8220E946C2387E4E2CF9CEF980F913A57
:10351000F0F290E2980F983050F4877091E001C07B
:10352000990F8A95EAF7892F0E942623D2CF9BE52F
:10353000980F933020F490E080E00C941F18885A84
:10354000873120F490E080E00C94351808958823AA
:1035500021F00E9420230C946C230895882321F0ED
:103560000E9426230C946C2308958F929F92AF9211
:10357000BF92DF92EF92FF920F931F93CF93DF934F
:103580007C01D62FC72FFC01058102950F70128197
:1035900011110E943F230E941623D82E882371F018
:1035A000112331F180E28D0F883010F182E00E940A
:1035B000B7230E94162391E0D82ED926BC2EB294B0
:1035C0009FE0B922EB2DF0E0E851F54E0C94A62FC8
:1035D000FA1AFA1A4A1B4A1B911B981B981B981B34
:1035E000B91B981B541C541CDE1C981B981BE71C11
:1035F000D12CE4CF0C2F0F70C07F11F00295007F0B
:103600001123A9F0002359F080E28D0F883010F0CB
:10361000D11109C0802F0E9420230E946C238D2F7E
:103620000E94551914C0802F0E943123F6CF8D2F90
:103630000E94581A002359F080E28D0F883010F054
:10364000D11124C0802F0E9426230E946C23DD20EC
:1036500009F4C4C10E94122380FDC0C1F701128287
:103660000E940C230E949221C7010E94FA1C0E9412
:103670000C23DF91CF911F910F91FF90EF90DF907E
:10368000BF90AF909F908F900C94B321802F0E9499
:103690003723DBCFFC2FFF70BF2EC07FC03219F065
:1036A000B29480EFB822DD2369F0D13049F11123C3
:1036B00091F1002351F1F701858180FFB0CF8F7028
:1036C000858323C0112381F0011106C00E9453237A
:1036D0008B290E94A71ABBCF0130C1F70E94532348
:1036E0008B290E945923B3CF011106C00E94622387
:1036F0008B2D0E94AE1AABCF013009F4A8CFF6CFC4
:10370000112329F0063008F0A2CF8B2DE2CF05302F
:1037100008F09DCFEDCF002359F38D2F0E94581A4A
:1037200096CF8C2F86958695837079F08130B9F08D
:1037300098E0B91609F459C0B91608F488CF86EF95
:103740008B0D823008F451C082CF8D2F9C2F937047
:10375000111102C090E080E00E941F1878CF8D2FD9
:103760009C2F9370111102C090E080E00E943518E8
:103770006ECF8C2F837009F04BC0111136C02D2FE6
:10378000229526952770220F220F6D2F6F70862E9F
:10379000912CB12CA12C022E04C0880C991CAA1CBF
:1037A000BB1C0A94D2F760E070E0CB01D4FF0FC0DD
:1037B0006FE070E080E090E004C0660F771F881F24
:1037C000991F2A95D2F76095709580959095C6952A
:1037D000C695C370C23071F0A0F4682979298A298E
:1037E0009B29C13091F00E9444210E94F9170E9448
:1037F00099022DCF682979298A299B290E9456216F
:10380000F4CF0E944421C501B4010E943221EDCFC2
:103810008695112311F08C2F8170882331F32D2F81
:10382000229526952770220F220F6D2F6F70862EFE
:10383000912CB12CA12C022E04C0880C991CAA1C1E
:10384000BB1C0A94D2F760E070E0CB01D4FF0FC03C
:103850006FE070E080E090E004C0660F771F881F83
:10386000991F2A95D2F76095709580959095C69589
:10387000C695C370C23051F080F4682979298A292D
:103880009B29C13071F00E940922AFCF68297929A4
:103890008A299B290E941B22A8CF0E940922C501C8
:1038A000B4010E94F721A1CFE0E2ED0FE53108F06D
:1038B00066C0F0E0E25AF34E0C94A62F731C731C02
:1038C000731C731C731C731C731C731C731C731C80
:1038D000731C731C731C731C731C731C841C921C40
:1038E000991CA01CAA1CDF708C2F8F71112331F042
:1038F0000E9492218D2F0E94A71A1ACF0E94B321F5
:103900008D2F0E94AE1A14CF112341F0053008F01C
:103910000FCF8C2F8F710E94D6210ACF063008F06E
:1039200007CFF7CF8C2F8F71112339F00E9492218E
:10393000FFCE8C2F8F711123C9F30E94B321F8CED3
:10394000112329F08C2F8F710E947D21F1CE0E94CE
:103950007821EECE112349F0CF718C2F0E94922155
:1039600063E08C2F0E94A223E3CE81E00E94B72364
:10397000023008F4DDCE82E00E94B723D9CE1123B5
:1039800049F0002321F08D2F0E945519D1CE8C2FA4
:103990008F71CCCF002379F0D93349F4FFEF27EEB4
:1039A00083E0F15020408040E1F700C000008D2FFF
:1039B0000E94581ABDCE8C2F8F71BFCF4C2F4F70E5
:1039C0006D2FC7010E94F2040E94A82040CE4C2F08
:1039D0004F706D2FC7010E94F50439CEDF91CF9152
:1039E0001F910F91FF90EF90DF90BF90AF909F904D
:1039F0008F9008950F931F93CF93DF93EC019881DD
:103A000089812B813C81232B39F08F3F19F481E090
:103A10009F3F19F080E001C081E080FD17C0CE011A
:103A20000E94AB02882391F0688179818A810E948B
:103A3000D4228C010E942D220E942F21B801CE0198
:103A4000DF91CF911F910F910C94B51ADF91CF9117
:103A50001F910F9108950E943F230E9450230E94BE
:103A60006C2390E080E00E941F1890E080E00C94AE
:103A700035180E9406230C942B1D0E942E230C94B3
:103A8000391DE92FE295EF70E250EE30E0F4F0E0FE
:103A9000E45BF24E0C94A62F5A1D5A1D631D631D44
:103AA000651D631D631D631D5A1D5A1D6A1D631D1F
:103AB000631D6A1D803F19F020F4803E20F481E0F0
:103AC0000895843FE1F380E00895803EC0F3813F94
:103AD000D1F7F5CF93FB882780F908950E94CA2279
:103AE0000C94411DCF93DF9300D000D01F92CDB72F
:103AF000DEB70F900F900F900F900F90DF91CF9146
:103B00000895CF93DF9300D000D000D0CDB7DEB7BB
:103B100026960FB6F894DEBF0FBECDBFDF91CF91D2
:103B200008951F93CF93DF93C091CF0316E0809148
:103B3000D0038C1304C0DF91CF911F910895D0E082
:103B40001C9FF0011D9FF00D1124EF52FC4F40818E
:103B5000518162817381848195810E94811D2196AA
:103B6000C770E5CF409101045091020460910304B5
:103B70007091040480910504909106040C94811DB9
:103B80001F93CF93DF9380910604807FD1F48091BF
:103B900003048823B1F08091CF03D091D003B0917A
:103BA0000104C09102044091040450910504A1E075
:103BB000BF3F09F0A0E0BA016095709516E0D813F8
:103BC00004C0DF91CF911F91089521E04115510567
:103BD00021F02A2FCF3F09F020E090E020FD38C0EF
:103BE000189FF001199FF00D1124EF52FC4F218115
:103BF0002C132EC020812B132BC02281211128C011
:103C0000238134812417350700F1241B350B283C10
:103C10003105F0F4209106042F70206120930604F2
:103C200026E0289FF001299FF00D1124EA52FC4F55
:103C300080818F708061808381E094E00E94FA1C13
:103C4000DF91CF911F910C94911D260F371FDFCF6D
:103C500001968770B4CFAF92BF92CF92DF92EF926E
:103C6000FF920F931F93CF93DF93CDB7DEB761978A
:103C70000FB6F894DEBF0FBECDBF8C0185E0F80112
:103C8000DE011D9601900D928A95E1F7D8014C91C5
:103C900011965C9111971296EC903091010460910D
:103CA0000204809104049091050421E0009731F012
:103CB0006F3F19F421E03F3F09F020E0B22FB170CF
:103CC000BB2E20FD80C1F801C380D480A0900304E6
:103CD000AA2009F427C1C816D906D0F1D601A81B1D
:103CE000B90BCD01FF24F394883C910508F0F12C29
:103CF00080910604982F907FFF2009F4CEC0911187
:103D000087C0FE2C651329C0341327C0E11025C0DD
:103D10008F708061809306040E94B21D81E094E060
:103D20000E94FA1C80910604F80185838F2D61960C
:103D30000FB6F894DEBF0FBECDBFDF91CF911F91BC
:103D40000F91FF90EF90DF90CF90BF90AF900895CC
:103D5000809590958C0D9D1DC5CF81E0CD2831F0CB
:103D60005F3F19F481E04F3F09F080E080FD24C0FF
:103D700081E08E25F82FF170DF2E80FF3FC080910B
:103D8000CF032091D00336E0821318C04D875E87A1
:103D90008D859E850E94CA22292F22952F70223060
:103DA00008F1243030F59F7009F1D80115969C91E7
:103DB000907FE1F4FB2CBACF80E0DCCF90E0389F1D
:103DC000F001399FF00D1124EF52FC4F6181561321
:103DD00006C06081461303C062816E110FC0019658
:103DE0008770D2CF9F7011F0882321F3805E8830D6
:103DF00008F3C8010E94FA1CBD2CDCCFEE2009F4A8
:103E000095CF80910604816080930604F12C8ECFBB
:103E1000651314C0341312C0E11010C0F80185837B
:103E2000C8010E94FA1C86E0F801A1E0B4E001900C
:103E30000D928A95E1F70E94B21D78CF4D875E877B
:103E40008D859E850E946E1D882319F1EE2009F153
:103E500080910604803270F02091010430910204B8
:103E600038872F831986DB86CA868C87CE01079612
:103E70000E94FA1C86E0F801A1E0B4E001900D92E6
:103E80008A95E1F70E94C01D0E94B21DFF24F394A1
:103E90004DCFC8010E94FA1CF9CF911113C07C2D9F
:103EA000D98AC88A6E2D89890E94721D81E094E0AA
:103EB0000E94FA1C86E0E1E0F4E0DF011D928A95A1
:103EC000E9F7B9CF651312C0341310C0E1100EC06A
:103ED000F8018583C8010E94FA1CE1E0F4E086E065
:103EE000DF011D928A95E9F7FA2C20CF4D875E8776
:103EF0008D859E850E946E1D882359F2EE2049F221
:103F000080910604803208F4B5CF209101043091ED
:103F100002043A8329831B82DD82CC828E83CE0108
:103F20000196A6CFC816D90638F1F601E81BF90BA1
:103F3000CF01F12C883C910508F03DC0FE2CEE200D
:103F400009F4A7CF651326C0341324C0809106045A
:103F500080FD17C0982F907FA1F0D80115968C9303
:103F60001597903F09F45CCF982F907F905F8F70EA
:103F7000892B15968C9354CF809590958C0D9D1D13
:103F8000D8CF86E0F801A1E0B4E001900D928A95C7
:103F9000E1F7CCCE4D875E878D859E850E946E1D94
:103FA000811168CF80910604816080930604C80166
:103FB0000E94FA1CBBCE7C2DD98AC88A6E2D8989B5
:103FC0000E94721D77CFEE2009F463CF4D875E8784
:103FD0008D859E850E946E1DF82E882309F459CF89
:103FE00086E0F801A1E0B4E001900D928A95E1F736
:103FF00081E094E00E9450190E94C01D1CCF1F93C5
:10400000CF93DF93CDB7DEB72C970FB6F894DEBF12
:104010000FBECDBF4F83588769877A878B879C8770
:10402000CE0107960E942B1E882309F442C09F816F
:1040300088852A853B85232B39F08F3F19F481E051
:104040009F3F19F080E001C081E080FD08C04F81F2
:10405000588569857A858B859C850E94811D16E02F
:104060008091CF039091D003891709F467C0819F95
:10407000C00111248F529C4F0E942B1E882309F4EB
:104080005DC0E091CF031E9FF0011124EF52FC4F61
:104090004081518162817381848195810E94811D5B
:1040A0008091CF0390E00196877099278093CF038A
:1040B000D7CF86E0FE013796DE01119601900D9272
:1040C0008A95E1F79F8188852A853B85232B39F0E6
:1040D0008F3F19F481E09F3F19F080E001C081E03B
:1040E00080FDBDCF2091D00330E0C90101968770DB
:1040F00099274091CF034817190699F096E0929FAF
:10410000D001939FB00D1124AF52BC4FFE013196E8
:1041100001900D929A95E1F78093D0030E94911D32
:104120009ECF0E943D1D1092D0031092CF0386E0D7
:10413000E1E0F4E0DF011D928A95E9F72C960FB6D5
:10414000F894DEBF0FBECDBFDF91CF911F910895D0
:10415000EF92FF920F931F93CF93DF938C01892BE4
:1041600081F0F12CEE24E394E8012196F80184918A
:10417000843770F4843008F05FC08130B1F0823051
:10418000A1F1DF91CF911F910F91FF90EF900895D2
:10419000853709F44CC008F43DC09CE7980F903770
:1041A00080F78F770E94581A49C00E5F1F4FFE019B
:1041B000849190E2980F983060F48770FE2D01C0D2
:1041C000FF0F8A95EAF78F2F0E9442230E946C23EB
:1041D00002C00E9455198F2D815030F2EFE9FFE0A7
:1041E0003197F1F700C00000F7CF0E5F1F4FFE01BF
:1041F000849190E2980F983050F48770FE2D01C0A2
:10420000FF0F8A95EAF78F2F0E944823DFCF0E9485
:10421000581AE1CF0E5F1F4FFE01C491C150D8F272
:104220008FE99FE00197F1F700C00000F7CF0E5F24
:104230001F4FFE01F490CFCF0E9455198E01CBCFB6
:1042400008950C9420210E942121609338047093DA
:10425000390480933A0490933B040C942B1D0895E9
:104260000C9423210F931F9300913804109139046B
:1042700020913A0430913B04602B712B822B932BBD
:104280001F910F910C9423210F931F9300913804D9
:104290001091390420913A0430913B04602371233A
:1042A000822393231F910F910C9423210F931F932B
:1042B000009138041091390420913A0430913B0464
:1042C00060277127822793271F910F910C94232138
:1042D0000C9420210C9468210E946A21609334047C
:1042E0007093350480933604909337040C942B1DFF
:1042F00060E070E0CB010C946C210F931F9341E0C0
:1043000050E060E070E08A019B0104C0000F111FC3
:10431000221F331F8A95D2F7C901B8011F910F914F
:104320000C946C210F931F9341E050E060E070E02B
:1043300004C0440F551F661F771F8A95D2F78091DE
:10434000340490913504A0913604B09137048A0169
:104350009B01082B192B2A2B3B2BC901B8011F915C
:104360000F910C946C210F931F9341E050E060E09B
:1043700070E004C0440F551F661F771F8A95D2F75F
:10438000CB01BA01609570958095909500913404A9
:104390001091350420913604309137046023712345
:1043A000822393231F910F910C946C210F931F93E1
:1043B00041E050E060E070E004C0440F551F661F0C
:1043C000771F8A95D2F78091340490913504A0919B
:1043D0003604B09137048A019B01082719272A2740
:1043E0003B27C901B8011F910F910C946C210F93C9
:1043F0001F930091340410913504209136043091BC
:104400003704602B712B822B932B1F910F910C94EF
:104410006C210F931F930091340410913504209167
:1044200036043091370460237123822393231F9134
:104430000F910C946C210F931F93009134041091F1
:104440003504209136043091370460277127822784
:1044500093271F910F910C946C2108952EE0929F49
:10446000800D1124982F977071E001C0770F9A95F5
:10447000EAF786958695869525E0829FC0011124EE
:1044800050E040E0A62FB0E0FC01E40FF51FE95F2B
:10449000FB4F60819D01042E02C0369527950A943A
:1044A000E2F72170219526272723262720834F5FB7
:1044B0005F4F4530510541F708952EE0929F800DE2
:1044C0001124982F977086958695869525E0829F72
:1044D000A001112470E060E080E0FA01E60FF71F10
:1044E000E95FFB4F208130E0092E02C03695279509
:1044F0000A94E2F721703327062E01C0220F0A9496
:10450000EAF7822B6F5F7F4F6530710531F70895B1
:10451000BF92CF92DF92EF92FF920F931F93CF93B0
:10452000DF938C01C0903404D0903504E0903604C1
:10453000F09037048091380490913904A0913A04A6
:10454000B0913B04C82AD92AEA2AFB2ACFE1D0E05D
:10455000BC2ED701C6010C2E04C0B695A795979521
:1045600087950A94D2F780FD0EC0219788F7B12C69
:104570008B2DDF91CF911F910F91FF90EF90DF90E6
:10458000CF90BF900895B8018C2F0E94120501971B
:1045900061F3EECFCF93DF93EC010E948822BE013E
:1045A000DF91CF910C9412051F93CF93DF93EB0112
:1045B0009091CE03992331F0CB01DF91CF911F91E0
:1045C0000C94CA22882379F0CB010E948822182FEC
:1045D000682FCE010E942E22BE01812FDF91CF9144
:1045E0001F910C941205CB010E945D22182FF4CF6D
:1045F000682F80910E0190910F010C94B524682FC3
:1046000080910E0190910F010C94C02480910E01B5
:1046100090910F010C94CB2480913C048595859555
:104620008595089580913C048770089590913C048D
:10463000977081E009F480E0089580916004089506
:1046400090916004892B809360040895982F909531
:10465000809160048923809360040895109260041F
:10466000089590915F04892B80935F040895982F9B
:10467000909580915F04892380935F040895109240
:104680005F04089590915E04892B80935E040895E1
:10469000982F909580915E04892380935E040895FD
:1046A00010925E04089580913D04089508950C943D
:1046B000562390913D04981721F080933D040C946B
:1046C0005723089580913D04882329F010923D04DA
:1046D00080E00C9457230895E0910E01F0910F01B2
:1046E000809160048083E0910E01F0910F01808140
:1046F00090915F04892B8083E0910E01F0910F016E
:10470000808190915E04892B808390913D04992350
:1047100081F0E0910E01F0910F018081892B80835F
:1047200080910E0190910F010E94512481110E94ED
:10473000622380910E0190910F010C940518089549
:104740000C949F2398E0899F90011124622B609321
:104750003C040E94922180913C0485958595859525
:104760000C94A02310923C0480E00C94A023909120
:104770003C048095892380933C04282F277071F492
:10478000282F082E000C330B9217130639F085954D
:10479000859585950E94B3210C94B22308956FEFFF
:1047A0007FEF90E080E00C943A3090E080E00E944F
:1047B000163021E08D3E9E4F09F020E0822F0895B3
:1047C00082E090E00C94083083E090E00C94083094
:1047D00084E090E00C940830682F84E090E00C9422
:1047E0001C30AB01BC018FE090E00C942E30AB018B
:1047F000BC0183E190E00C942E3060E070E0CB01CE
:104800000C94F72360E070E0CB010E94F1230C943C
:10481000FD236DEE7EEF90E080E00E943A3060E094
:1048200082E090E00E941C3060E083E090E00E9413
:104830001C30109238041092390410923A041092ED
:104840003B0460E084E090E00E941C3060E085E082
:1048500090E00E941C3060E086E090E00E941C30F6
:104860006FEF87E090E00E941C3040E050E0BA011A
:1048700088E090E00E942E3060E08DE090E00E94A1
:104880001C3040E050E0BA0188E190E00E942E30F8
:1048900060E087E190E00E941C300C9402240C94AC
:1048A0000924FC01329680911A01882321F080911D
:1048B00000069EE187FF96E080E0915008F408959D
:1048C00021912223D1F38F5FF8CF9C01FC01329616
:1048D0009FEF80E04191461751F09F3F19F441113D
:1048E00001C0982F8F5F8630A9F79F3F09F4089584
:1048F000290F311D97FD3A95F90162830895FC0156
:10490000329608962191261303C0DF0111971C925D
:10491000E817F907B9F70895E62FE695E695E695C5
:10492000EE3168F4E80FF92FF11D677021E030E0F7
:1049300001C0220F6A95EAF78281822B8283089553
:10494000E62FE695E695E695EE3170F4E80FF92F3F
:10495000F11D677021E030E001C0220F6A95EAF78F
:104960002095828128232283089520911A012223F1
:1049700029F02091000627FD0C948C240C946524CA
:1049800020911A01222329F02091000627FD0C9482
:10499000A0240C947F24FC01329680911A01882374
:1049A00051F08091000687FF06C08EE1DF011D9265
:1049B0008A95E9F7089586E0F9CF08950C94770277
:1049C0000895CF930E94DD240E94D7070E94E0241F
:1049D000C0E08C2F0E946A08892B31F4CF5FC5306C
:1049E000C1F780E0CF91089581E0FCCF0E943D1D8A
:1049F0000E94F9170E9499020C947A0282E084BD09
:104A000093E095BD9AEF97BD80936E0008952FB700
:104A1000F8948091FC059091FD05A091FE05B09160
:104A2000FF052FBF0895CF92DF92EF92FF920F9371
:104A30001F932FB7F8944091FC055091FD056091AC
:104A4000FE057091FF052FBF6A017B01EE24FF2454
:104A50008C0130E020E0C016D106E206F30650F0EB
:104A6000481B590BCA011F910F91FF90EF90DF90E7
:104A7000CF90089541505109F3CF78941F920F922F
:104A80000FB60F9211248F939F93AF93BF93809192
:104A9000FC059091FD05A091FE05B091FF050196E2
:104AA000A11DB11D8093FC059093FD05A093FE050B
:104AB000B093FF05BF91AF919F918F910F900FBE63
:104AC0000F901F90189581E08093E00080E2809322
:104AD000D8001092C9008FE19EE40197F1F700C061
:104AE000000087E090EBDC0180930F0690931006A6
:104AF000A0931106B093120688E19CE00FB6F894DB
:104B0000A895809360000FBE90936000FFCF0E9435
:104B1000D523811102C00E944F240E94E02380937C
:104B200061040E94E82390E09093010680930006C0
:104B30000E94E423682F70E090E080E00C94302124
:104B400080918204089508950F931F93CF93DF936C
:104B500000D01F92CDB7DEB78C010E94DD278230D6
:104B600011F0843021F584E089831B830A8382E07D
:104B70008093E9008FEF9091E800815095FD06C089
:104B800095ED9A95F1F700008111F5CF8091E8003D
:104B900085FF0DC050E040E063E070E0CE0101967B
:104BA0000E94FA278091E8008E778093E8000F90AA
:104BB0000F900F90DF91CF911F910F910895CF9398
:104BC000DF9300D01F92CDB7DEB7209106062430C8
:104BD00031F523E02983805891099B838A8382E001
:104BE0008093E9008FEF9091E800815095FD06C019
:104BF00095ED9A95F1F700008111F5CF8091E800CD
:104C000085FF0DC050E040E063E070E0CE0101960A
:104C10000E94FA278091E8008E778093E8000F9039
:104C20000F900F90DF91CF910895CF93DF93EC0118
:104C30000E94DD27823011F08430B9F580911A018D
:104C40008823B1F18091000687FF32C060E282E0E4
:104C50008093E9008FEF9091E800815095FD06C0A8
:104C600095ED9A95F1F700008111F5CF8091E8005C
:104C700085FF1BC080911A0170E050E040E0811177
:104C800004C050E040E068E070E0CE010E94FA27E6
:104C90008091E8008E778093E80080E2FE01A2E632
:104CA000B4E001900D928A95E1F7DF91CF910895DC
:104CB00068E081E0CDCF80910506811109C00E9496
:104CC0008A290E94E7298091E20084608093E200B3
:104CD0000895109205060895089508950C94F624F9
:104CE00042E061EC81E00E94082942E261EC82E04E
:104CF0000C94082980910806833009F462C030F4CE
:104D00008130D9F1823009F49EC008958A3009F4C7
:104D10008AC08B3009F470C0893009F051C080918D
:104D20000706813209F04CC080910B0690910C0669
:104D3000029708F045C08091E800877F8093E800E3
:104D40008091E80082FF38C08091F3009091F200DA
:104D5000892798278927029729F48091F1008B7F72
:104D6000813021F48091F100809382048091E800E9
:104D70008B778093E8000C943C2980910706813A58
:104D8000F9F48091E800877F8093E80080910B061A
:104D900090910C06892B61F460E282E694E070E069
:104DA0000E9449288091E8008B778093E80008955D
:104DB00060E090E080E0F3CF809106068111C0CFE3
:104DC000089580910706813AD9F780910B0690915A
:104DD0000C06892BA9F78091E800877F8093E80073
:104DE0008091E80080FFFCCF80911A018093F10050
:104DF0008091E8008E77BDCF80910706813201F760
:104E000080910B0690910C06892BD1F68091E800D9
:104E1000877F8093E8000E943C2980910906809357
:104E20001A010C943D1D80910706813249F680914C
:104E3000E800877F8093E8000E943C2980910A0661
:104E400080938304089580910706813A09F0B8CFD2
:104E50008091E800877F8093E8008091E80080FFE0
:104E6000FCCF80918304C2CF84B7877F84BF0FB605
:104E7000F894A895809160008861809360001092FA
:104E800060000FBE80E880936100109261000E9474
:104E900059180E948A290E94E7298091E2008460C3
:104EA0008093E20078940E94702C0E94611880E147
:104EB00091E00E94F41780910606853019F00E9457
:104EC0006918F9CF0E94DE2480910406882399F3A3
:104ED0000E94E124882379F30E94E427ECCF0C940C
:104EE0007127292F33272330310571F158F42130F0
:104EF0003105E9F02230310511F190E080E030E039
:104F000020E019C021323105C1F122323105A9F763
:104F100080E490E028ED33E06115710561F081E7F0
:104F200090E027E633E06130710529F0E6CF82E1B9
:104F300090E025E533E0FA013183208308958BE387
:104F400090E02AE133E0F7CF99278130910579F09D
:104F500040F08230910571F0039779F6E2EEF2E0CD
:104F600002C0E6E1F3E0849190E09F01E4CFE4EF3A
:104F7000F2E0F9CFE8EEF2E0F6CF89E090E02CE243
:104F800033E061157105B9F289E090E025E433E082
:104F90006130710581F2B1CF0895CF93C82F0E947F
:104FA000CC27C0938404CF91089580910606843065
:104FB00011F081E0089582E00895809184048111C8
:104FC00002C00C94D527089580E189BD82E189BD96
:104FD00009B400FEFDCF8091D8008F7D8093D8006A
:104FE0008091E00082608093E0008091E00081FD8C
:104FF000FCCF0895AF92BF92CF92DF92FF920F93B2
:105000001F93CF93DF936C01EB018A010E945B2910
:10501000F82E811123C00115110539F0F8018081A6
:105020009181C81BD90BC80ED91EB12CA12C209779
:10503000A9F08091E80085FD22C08091E8008E777C
:105040008093E80001151105A1F0F801808191819C
:10505000A80EB91EB182A08285E0F82E8F2DDF91B7
:10506000CF911F910F91FF90DF90CF90BF90AF90A5
:1050700008950E945B298823D1F2F82EEFCFF60124
:1050800081916F018093F1002197FFEFAF1ABF0A62
:10509000CECFFC0180910D0690910E0686179707E2
:1050A000A0F06115710529F49091E8009E77909326
:1050B000E80090E06115710551F4911108C08091EC
:1050C000E80082FF35C080E00895BC01F2CF8091F6
:1050D00006068823C9F18530C9F18091E80083FD77
:1050E00031C08091E80082FDEACF8091E80080FF26
:1050F000E1CF2091F3008091F200322F282F61152B
:10510000710519F02830310558F091E0283031054B
:1051100009F090E02091E8002E772093E800CACFB4
:1051200081918093F100615071092F5F3F4FE7CF6C
:1051300080910606882341F0853041F08091E80097
:1051400083FFBDCF81E0089582E0089583E0089554
:10515000FC0180910D0690910E0686179707A0F02E
:105160006115710529F48091E8008E778093E8003D
:1051700090E06115710551F4911108C08091E8002B
:1051800082FF36C080E00895BC01F2CF8091060610
:105190008823D1F18530D1F18091E80083FD32C0C0
:1051A0008091E80082FDEACF8091E80080FFE1CFA6
:1051B0002091F3008091F200322F282F61157105A4
:1051C00019F02830310558F091E02830310509F008
:1051D00090E08091E8008E778093E800CACF8491B8
:1051E0008093F1003196615071092F5F3F4FE6CFF8
:1051F00080910606882341F0853041F08091E800D7
:1052000083FFBCCF81E0089582E0089583E0089594
:10521000982F973028F08F708093E90081E00895EF
:105220009093E900242F762F50E0981731F0709179
:10523000EC002091ED005091F00021FD02C09F5F35
:10524000E8CF3091EB003E7F3093EB003091ED00E2
:105250003D7F3093ED003091EB0031603093EB00F7
:105260007093EC002093ED005093F0002091EE003D
:1052700027FDE5CF80E008958091070687FF13C0E2
:105280008091E80082FF06C08091E8008B778093D0
:10529000E80004C0809106068111F2CF0895809144
:1052A00006068823D9F38091E80080FFF8CF80912B
:1052B000E8008E77ECCF2091E4003091E50085E6A0
:1052C0009091EC0090FF06C09091E80090FF06C01E
:1052D00080E008959091E80092FDFACF9091060643
:1052E000992391F0953091F09091EB0095FD10C0CD
:1052F0004091E4005091E5002417350709F38150EF
:105300009A01F1F684E0089582E0089583E008951B
:1053100081E008950E94F8290E94002AE0EEF0E062
:10532000808181608083E8EDF0E080818F778083E9
:1053300019BCA7EDB0E08C918E7F8C9380818F7E1D
:1053400080831092050608950F931F93CF93DF93E8
:105350000E94F8290E94002AC8EDD0E088818F774A
:10536000888388818068888388818F7D888319BC41
:10537000109206061092020610920406109203067E
:1053800000EE10E0F80180818B7F8083888181604E
:10539000888342E060E080E00E940829E1EEF0E0CE
:1053A00080818E7F8083E2EEF0E080818160808367
:1053B000808188608083F80180818E7F80838881EE
:1053C00080618883DF91CF911F910F910895E8ED5F
:1053D000F0E080818F7E8083E7EDF0E08081816066
:1053E000808384E082BF81E0809305060C94A42929
:1053F000E8EDF0E080818E7F80831092E2000895D6
:105400001092DA001092E10008951F920F920FB6E9
:105410000F9211242F933F934F935F936F937F933A
:105420008F939F93AF93BF93EF93FF938091E1008E
:1054300082FF0BC08091E20082FF07C08091E100F3
:105440008B7F8093E1000E946F2C8091DA0080FFB7
:1054500019C08091D80080FF15C08091DA008E7F3E
:105460008093DA008091D90080FF94C080E189BDEB
:1054700082E189BD09B400FEFDCF81E0809306067C
:105480000E945B268091E10080FF19C08091E200BC
:1054900080FF15C08091E2008E7F8093E2008091B2
:1054A000E20080618093E2008091D8008062809366
:1054B000D80019BC85E0809306060E946D26809175
:1054C000E10084FF29C08091E20084FF25C080E1D3
:1054D00089BD82E189BD09B400FEFDCF8091D8006D
:1054E0008F7D8093D8008091E1008F7E8093E100D2
:1054F0008091E2008F7E8093E2008091E2008160E3
:105500008093E20080910206882309F449C084E078
:10551000809306060E946E268091E10083FF29C0D9
:105520008091E20083FF25C08091E100877F809316
:10553000E10082E080930606109202068091E1006D
:105540008E7F8093E1008091E2008E7F8093E20065
:105550008091E20080618093E20042E060E080E0C0
:105560000E9408298091F00088608093F0000E94DA
:105570006C26FF91EF91BF91AF919F918F917F9199
:105580006F915F914F913F912F910F900FBE0F90B0
:105590001F90189519BC109206060E94692672CFBA
:1055A0008091E30087FD02C081E0B2CF83E0B0CFFD
:1055B0001F920F920FB60F9211242F933F934F9388
:1055C0005F936F937F938F939F93AF93BF93CF938B
:1055D000EF93FF93C091E900CF708091EC0010929F
:1055E000E9008091F000877F8093F00078940E941A
:1055F000142B1092E9008091F00088608093F000F5
:10560000C093E900FF91EF91CF91BF91AF919F912E
:105610008F917F916F915F914F913F912F910F905B
:105620000FBE0F901F9018951F93CF93DF93CDB7A8
:10563000DEB7AA970FB6F894DEBF0FBECDBFE7E086
:10564000F6E08091F100819326E0EF30F207C9F790
:105650000E947A268091E80083FF44C0809107066B
:10566000909108069A3008F03DC0E92FF0E0E55C23
:10567000F44D0C94A62F452B6B2B722B6B2B722B9E
:10568000C92BEB2B722B422C4F2C803889F082389F
:1056900049F580910B068F70873020F58093E900E3
:1056A0008091EB0085FB882780F91092E90006C005
:1056B0008091030690910406911182609091E80018
:1056C000977F9093E8008093F1001092F100809111
:1056D000E8008E772DC0282F2D7F21F48823D1F06C
:1056E000823059F18091E80083FF0AC08091E80080
:1056F000877F8093E8008091EB0080628093EB00CD
:10570000AA960FB6F894DEBF0FBECDBFDF91CF9142
:105710001F91089580910906813021F7933009F097
:1057200080E0809304061092E9008091E800877F72
:105730008093E8000E943C29D5CF80910906811111
:10574000F2CF80910B068F702FEF280F263050F686
:105750008093E9002091EB0020FFE5CF933031F4F6
:105760008091EB0080628093EB00DDCF9091EB00A5
:1057700090619093EB0021E030E001C0220F8A9508
:10578000EAF72093EA001092EA008091EB0088602B
:10579000EACF8111A7CF109109061F778091E3000E
:1057A0008078812B8093E3008091E800877F80934D
:1057B000E8000E943C298091E80080FFFCCF8091A6
:1057C000E30080688093E30083E0111101C082E070
:1057D0008093060687CF8058823008F083CF80916F
:1057E000090690910A068C3D23E09207A1F583E01B
:1057F0008A838AE289834FB7F894DE01139620E00A
:105800003EE051E2E32FF0E050935700E49120FF97
:1058100003C0E295EF703F5FEF708E2F90E0EA30AB
:10582000C0F0C7968D939D932F5F243159F74FBFDA
:105830008091E800877F8093E8006AE270E0CE0103
:1058400001960E9449288091E8008B778093E800B8
:1058500049CFC096E7CF60910B0670910C06AE0160
:105860004F5F5F4F0E946F27BC01892B09F43ACF2D
:105870009091E800977F9093E80089819A810E9437
:10588000A828E1CF803809F02DCF8091E800877FEC
:105890008093E800809102068093F10018CF811177
:1058A00021CF90910906923008F01CCF8091E8003A
:1058B000877F8093E800909302060E943C298091A4
:1058C0000206882331F084E0809306060E94702649
:1058D00009CF8091E30087FDF6CF81E0F5CF0895F1
:1058E000CF9380910606882399F0C091E900CF708C
:1058F0008091EC0080FD0EC080E0C82B1092E90082
:105900008091E80083FD0E94142BCF70C093E900C2
:10591000CF91089580E8F1CF5058BB27AA270E9465
:10592000A42C0C94252E0E94EC2D38F00E94F32D0F
:1059300020F039F49F3F19F426F40C94E92D0EF46D
:10594000E095E7FB0C94E32DE92F0E944A2E58F3D3
:10595000BA17620773078407950720F079F4A6F554
:105960000C946C2E0EF4E0950B2EBA2FA02D0B018B
:10597000B90190010C01CA01A0011124FF27591B94
:1059800099F0593F50F4503E68F11A16F040A22F9A
:10599000232F342F4427585FF3CF4695379527950B
:1059A000A795F0405395C9F77EF41F16BA0B620B0A
:1059B000730B840BBAF09150A1F0FF0FBB1F661F51
:1059C000771F881FC2F70EC0BA0F621F731F841F94
:1059D00048F4879577956795B795F7959E3F08F0BA
:1059E000B0CF9395880F08F09927EE0F979587957C
:1059F00008950E94FC2DE3950C94362E0E94122DE2
:105A00000C94252E0E94F32D58F00E94EC2D40F0AE
:105A100029F45F3F29F00C94E32D51110C946D2E65
:105A20000C94E92D0E944A2E68F39923B1F3552373
:105A300091F3951B550BBB27AA27621773078407A1
:105A400038F09F5F5F4F220F331F441FAA1FA9F337
:105A500035D00E2E3AF0E0E832D091505040E69525
:105A6000001CCAF72BD0FE2F29D0660F771F881F86
:105A7000BB1F261737074807AB07B0E809F0BB0B79
:105A8000802DBF01FF2793585F4F3AF09E3F51058D
:105A900078F00C94E32D0C946D2E5F3FE4F3983E68
:105AA000D4F3869577956795B795F7959F5FC9F776
:105AB000880F911D9695879597F90895E1E0660FF7
:105AC000771F881FBB1F621773078407BA0720F070
:105AD000621B730B840BBA0BEE1F88F7E0950895D9
