:100000000C94FD010C9444020C9444020C944402A0
:100010000C9444020C9444020C9444020C94440248
:100020000C9444020C9444020C948F2A0C94622B7E
:100030000C9444020C9444020C9444020C94440228
:100040000C9444020C9444020C9444020C94440218
:100050000C9444020C94C7250C9444020C94440262
:100060000C9444020C9444020C9444020C944402F8
:100070000C9444020C9444020C9444020C944402E8
:100080000C9444020C9444020C9444020C944402D8
:100090000C9444020C9444020C9444020C944402C8
:1000A0000C9444020C9444020C944402165C1E000E
:1000B0001F0020002100220023002400250026002C
:1000C00027002D002E002A002B0014001A00080023
:1000D000150017001C0018000C00120013002F0060
:1000E00030000000015104001600070009000A005A
:1000F0000B000D000E000F0033003400320028000A
:10010000E10001511D001B0006001900050011004F
:10011000100036003700380000005200E000E20016
:10012000E3000000000000002C00000000000000C0
:10013000E700500051004F00165C3A003B003C00C5
:100140003D003E003F0040004100420043004400AB
:1001500045004C00C25CC55CC75CC95CC35CCB5C41
:10016000010001000100010001000100005C00002D
:100170000151C65CC85CCA5CC45CCC5C0100010077
:100180000100010001000100010001000100015116
:100190000100010001000100010001000100010057
:1001A0000100010000000100A900AA00A800000051
:1001B000000000000100000000000000E700E60071
:1001C0000100E00000000000000101010101010147
:1001D00001010202020202020202020303030303FC
:1001E00003030304040404040405050505050606C9
:1001F00006060607070707080808080909090A0A82
:100200000A0A0B0B0B0C0C0C0D0D0D0E0E0F0F0F25
:1002100010101111111212131314141515161617AC
:1002200017181819191A1A1B1C1C1D1D1E1F1F2018
:10023000202122222324252526272728292A2B2B63
:100240002C2D2E2F2F303132333435363637383986
:100250003A3B3C3D3E3F4041424344464748494A81
:100260004B4C4D4F50515253555657585A5B5C5E4C
:100270005F606263646667696A6C6D6E70717374E7
:100280007678797B7C7E8081838486888A8B8D8F4B
:1002900091929496989A9B9D9FA1A3A5A7A9ABAD77
:1002A000AFB1B3B5B7B9BBBDBFC1C4C6C8CACCCF67
:1002B000D1D3D6D8DADCDFE1E4E6E8EBEDF0F2F515
:1002C000F7FAFCFF0403300000000A034800530063
:1002D00036003000000020035900690061006E0004
:1002E0006300610072002D00440065007300690026
:1002F00067006E00730000000403090409023B005C
:10030000020100A0FA090400000103010100092113
:10031000110100012240000705810308000A0904B9
:1003200001000103000000092111010001227100F8
:100330000705820320000A1201100100000008EDE9
:10034000FE570201000102030105010980A1018598
:10035000031601002603001A81002A8300751095F8
:10036000018100C0050C0901A101850416010026C8
:100370009C021A01002A9C02751095018100C0059B
:10038000010906A1018505050719E029E7150025E2
:100390000195087501810205081901290595057562
:1003A0000191029501750391010507190029EF15C7
:1003B00000250195F075018102C005010906A10122
:1003C000050719E029E71500250195087501810247
:1003D0009501750881010508190129059505750123
:1003E00091029501750391010507190029FF150078
:1003F00026FF00950675088100C011241FBECFEFAF
:10040000DAE0DEBFCDBF04B603FE27C08091290627
:1004100090912A06A0912B06B0912C068730904B24
:10042000A740B04BD1F41092290610922A061092E0
:100430002B0610922C0614BE84B7877F84BF0FB69C
:10044000F894A89580916000886180936000109274
:1004500060000FBEE0E0F8E3099513E0A0E0B1E032
:10046000ECEAFCE502C005900D92A832B107D9F77D
:1004700026E0A8E2B3E001C01D92A932B207E1F77D
:100480000E94BE270C94542E0C9400000E94C007BA
:100490008FE19EE40197F1F700C000000E94C007C1
:1004A00080E00E94530880FF09C084E00E94530846
:1004B00086FF04C00E9430240C94ED2508950E940C
:1004C00046020C946E020C946F020C947002089514
:1004D00081E00C94FE1480E00C94FE1408950895BD
:1004E00081E0089581E008950E943624811102C0C0
:1004F0000E94B0240E948F140C945F020E94F2129A
:100500000C9463020C94670208950E949E1D0E9441
:1005100084022FEF84E39CE0215080409040E1F77B
:1005200000C000000C94ED25FF920F931F93CF9312
:10053000DF938C01FC01C081D1818091F503811191
:1005400050C08281882309F447C0CE010E94E9226D
:10055000F82E682FCE010E948F22BE018F2D0E949F
:10056000DF04EC01B8010E945912882309F4D9C0B4
:10057000B801CE010E946502882309F4D2C0C93CAB
:10058000FCE5DF0709F409C108F072C0C23C9CE534
:10059000D90709F4DEC008F041C0C531FCE5DF072A
:1005A00028F5C2308CE5D80708F01EC1C1159CE5BE
:1005B000D90709F4B1C0C130DC4509F4B9C081E004
:1005C00080932D0380932E03C801DF91CF911F915B
:1005D0000F91FF900C947202CE010E94BE22F82E61
:1005E000BCCFCE010E94E922BE01B9CFC631DC45A5
:1005F00031F70E947E23F8019281992309F4D1C139
:100600008A7A91E009F490E0909328038111C7C1A0
:1006100089E20E9459230E94CD2383C0C53C8CE50A
:10062000D80709F4A9C0A8F4C33CECE5DE0709F437
:1006300097C0C43CDC4519F6F8018281882309F48F
:1006400070C00E947E23827209F493C00E94181524
:1006500068C0F8018281C73CFCE5DF0709F498C057
:1006600008F491C0882309F45CC00E94711559C038
:10067000C63DECE5DE07E8F4CE3CFCE5DF0708F01C
:1006800050C0CB3C8CE5D80709F497C008F48DC066
:10069000CC3CECE5DE0709F498C0CD3CDC4509F024
:1006A0008ECFF80182818823E1F181E00E94C1159B
:1006B00038C0C93D8CE5D80709F456C1C0F4C73D20
:1006C000ECE5DE0709F414C1C83DDC4509F077CF3D
:1006D000F8018281882309F432C110922E030E940E
:1006E000682590932C0380932B0380E20EC1CD3DAF
:1006F0008CE5D80709F471C0CE3D9CE5D90711F10E
:10070000CC3DDC4509F05BCFF8018281882349F0BC
:1007100080E00E94572805C0F801828181110E9463
:10072000850280E0DF91CF911F910F91FF90089596
:10073000F80182818823A9F38091880481608093E5
:100740008804EFCFF8018281882359F30E94B024F6
:10075000E8CFF8018281882321F30E940115E1CFBF
:10076000F80182818823E9F20E947E23827209F4D3
:100770006DCF0E943515D5CFF8018281882389F28B
:100780000E944D15CECF882361F20E945815C9CF23
:10079000882339F20E946315C4CFF801828188232F
:1007A00009F4BFCF0E947F15BCCFF8018281882356
:1007B00009F4B7CF0E949715B4CFF801828188233E
:1007C00009F4AFCF0E94A515ACCFF8018281882330
:1007D00009F4A7CF0E94B315A4CFF8018281882322
:1007E00009F49FCF82E095CFF8018281882309F434
:1007F000EBCE0E943624811102C00E94B0240E94D8
:10080000492490E090931B0680931A06FE01E35062
:10081000FC4580911A068160E231F105C8F4ED5E75
:10082000FB4F0C945D2D25043104350439043D043F
:100830004104450449044D045104550459045D0420
:100840006104650469046D04710480911A06826074
:1008500080931A0680911A060E944D240E949E1DC4
:1008600060CF80911A068460F3CF80911A06886069
:10087000EFCF80911A068061EBCF80911A068062DB
:10088000E7CF80911A068064E3CF80911A068068D2
:10089000DFCF80911A068460EACF80911A068E7F9E
:1008A000D7CF80911A068D7FD3CF80911A068B7F88
:1008B000CFCF80911A06877FCBCF80911A068F7E8B
:1008C000C7CF80911A068F7DC3CF80911A068F7B88
:1008D000BFCF80911A068F77BBCF80911A068B7F8E
:1008E000EACF90911A06892F97FB87F98058B0CFED
:1008F000F8018281882361F010922D030E946825FF
:1009000090932A038093290382E00E94081B09CF59
:1009100080912D0381110FC08091290390912A03AA
:100920000E948025883C910530F486E20E94B61929
:1009300086E20E94B91A82E00E940F1BF2CE8091DB
:100940002E0381110FC080912B0390912C030E94E4
:100950008025883C910530F487E20E94B61987E231
:100960000E94B91A80E2E8CFF80182818111B5CEE8
:1009700080912E038111F6CF80912B0390912C034F
:100980000E948025883C910568F780E20E940F1B39
:1009900088E20E94B61988E20E94B91AC2CE85E3A5
:1009A00038CE80912803811104C089E20E9460231F
:1009B00032CE85E3FBCF90E080E008950895972F35
:1009C00070E02EE0929F600D711D1124FB0196E4F2
:1009D000899FE00DF11D1124EE0FFF1FE455FF4F1D
:1009E000859194910895FC01EE0FFF1FEC53FE4F8B
:1009F000859194910895CF93DF930E94DF040E9424
:100A0000B706EC018115904508F043C0C11580E49C
:100A1000D80708F017C1C83ED10528F5C03ED1055A
:100A200008F0A3C0C83AD10580F4C53AD10508F052
:100A300092C0C130D10509F498C020F0C430D1056E
:100A400008F093C0D0E0C0E090C0CF3BD10508F4DF
:100A500090C0CE01805C9109C03CD10598F30E9402
:100A6000F304EC0182C0C11520E2D20750F4C11595
:100A700081E0D80708F079C0C03FD10518F3D065F0
:100A800074C0C11520E3D20708F0D2C0CE019F7018
:100A9000E6CFC11585E5D80760F5C11524E5D20775
:100AA00008F0FEC0C11582E5D80750F4C11521E554
:100AB000D20708F4CAC0DC2FCC27C16FD06A55C05A
:100AC0009C2F969596959E0123703327C115D3458B
:100AD00008F0D7C0C1E0D0E002C0CC0FDD1F2A95DE
:100AE000E2F720E2929FC0011124C82BD92BDC68C9
:100AF0003CC0C11529E5D207A8F4C11588E5D8077F
:100B000008F0D3C0C11526E5D20708F09BCF8C2F83
:100B10000E943707C82FD0E0DC2FCC27CC27DF710D
:100B2000D06223C0C1158AE5D80708F4C3C0CE013E
:100B300090568115904208F085CF8D2F8F710E94BD
:100B40003707DD27D06290E0982F882788279F718C
:100B5000C82BD92B0AC0C53AD10509F4BDC0C63A85
:100B6000D10509F4BCC0C3E8D0E4CE01DF91CF9138
:100B70000895C83AD10509F4B5C0C93AD10509F4B8
:100B8000B4C0CA3AD10509F4B3C0CB3AD10509F4CF
:100B9000B2C0CC3AD10509F4B1C0CB3BD10509F4C0
:100BA000B0C0CC3BD10509F4AFC0CD3AD10509F4B2
:100BB000AEC0C03BD10509F4ADC0CE3AD10509F4B1
:100BC000ACC0CF3AD10509F4ABC0C13BD10509F4A3
:100BD000AAC0C23BD10509F4A9C0C33BD10509F4A1
:100BE000A8C0C43BD10509F4A7C0C53BD10509F491
:100BF000A6C0C63BD10509F4A5C0C73BD10509F481
:100C0000A4C0C83BD10509F4A3C0C93BD10509F470
:100C1000A2C0CD3BD10509F4A1C0CE3BD10509F45A
:100C2000A0C0CA3BD10509F09FC0CAE2D6E49DCF5F
:100C3000CE019927D3FF03C0EC01D86C96CFEC010D
:100C4000D06C93CFDF70D06A90CFCE01F4E0969550
:100C50008795FA95E1F783709C2F937021E030E03F
:100C600002C0220F331F9A95E2F73C68382BC695D5
:100C7000C695C37080E2C89FE0011124C22BD32B1C
:100C800074CFC1E0D0E002C0CC0FDD1F2A95E2F79F
:100C900020E2929FC0011124C82BD92BDA6865CFBE
:100CA000DC2FCC27C46FD06A60CFDC2FCC27C06F7D
:100CB000D06A5BCF8C2F8F700E94370734E0D695B7
:100CC000C7953A95E1F7CF70D0E0DC2FCC27D06AFA
:100CD0008F70806EC82B49CFC1E8D0E446CFC2E800
:100CE000D0E443CFC2EED4E440CFC9EED4E43DCF4C
:100CF000CAEED4E43ACFC5EBD4E437CFC6EBD4E4A4
:100D000034CFC3EBD4E431CFC4EBD4E42ECFC7EB64
:100D1000D4E42BCFCCECD4E428CFCDECD4E425CF55
:100D2000C3E8D5E422CFCAE8D5E41FCFC2E9D5E4B1
:100D30001CCFC4E9D5E419CFC1E2D6E416CFC3E293
:100D4000D6E413CFC4E2D6E410CFC5E2D6E40DCF8B
:100D5000C6E2D6E40ACFC7E2D6E407CFCFE6D4E4B2
:100D600004CFC0E7D4E401CFC0E0D4E4FECE8238A3
:100D7000910549F1B0F48133910509F45CC048F460
:100D80008932910509F452C08A32910509F458C09C
:100D900008958533910509F444C08933910599F08C
:100DA0000895833E910531F138F4803E910591F02C
:100DB000823E9105B1F00895863E910511F1873E7E
:100DC000910541F1089520911A062370C9F080EE33
:100DD00090E0089520911A0620FF12C089E390E068
:100DE000089520911A0622FF0BC024FF2EC090E028
:100DF00080E0089520911A0622FD2AC024FDF7CF35
:100E0000089520911A0623FFFBCF24FDF0CF87EE33
:100E100090E0089520911A0623FFF0CF86EE90E02F
:100E2000089520911A0625FD16C0089520911A06EE
:100E300025FD14C0089520911A0626FD12C00895BC
:100E400020911A0626FD10C0089583EE90E00895C3
:100E500082EE90E0089589E290E0089585E390E0C5
:100E600008958AE290E0089581E390E0C9CF9091DF
:100E70001A0692FF06C0282F2871283069F4877F50
:100E8000846093FF06C0282F2871283161F4877E83
:100E9000846194FD877E0895282F2471243089F77A
:100EA0008B7F8860EECF282F2471243191F78B7EC1
:100EB0008861EFCFCF93DF93A2E1B3E027E133E086
:100EC00061E070E09D91E92FE295EF70F0E041A1C3
:100ED0009F70EB0102C0CC0FDD1F9A95E2F7CE01A7
:100EE0008095842381A32A173B0761F7A4E0B3E030
:100EF00061E070E08D91E82FE295EF70F0E041A1A4
:100F00008F709B0101C0220F8A95EAF7922F90956E
:100F1000942391A382A1822B82A3D3E0A231BD07A7
:100F200049F710923A03109239031092300310924D
:100F30002F0310923C0310923B0310923203109245
:100F4000310310923E0310923D031092340310922D
:100F500033031092400310923F0310923603109215
:100F600035031092420310924103109238031092FD
:100F7000370385E00E945D08DF91CF910C947402E5
:100F80006F927F929F92AF92BF92CF92DF92EF9239
:100F9000FF920F931F93CF93DF93A9E3B3E092E106
:100FA000692E93E0792E20E0EE24E394F12CAD90AD
:100FB000BC90119711961C921E92E30189913E01FB
:100FC000E82FE295EF70F0E091A18F70B70101C0BA
:100FD000660F8A95EAF7892F862B81A382A1962E28
:100FE0009094892182A3D0EADA95F1F784E0C82EA3
:100FF00083E0D82E50E040E0E60139916E01032FE6
:1010000002950F7010E0E80188A10D911C911197D5
:1010100090E03F7002C0959587953A95E2F780FD84
:101020003FC0C701042E02C0880F991F0A94E2F73F
:10103000082B192B11961C930E934F5F5F4F4E3068
:101040005105D1F681A1892181A382A1682B62A3D8
:1010500081E04D915C9111974A155B0509F480E0A0
:10106000282B1296D7E16D16D3E07D0609F09FCFAD
:1010700045E06FE273E089E393E00E945E080E941E
:101080007E0281E0DF91CF911F910F91FF90EF9051
:10109000DF90CF90BF90AF909F907F906F9008951A
:1010A00090E080E0C5CFE82FF0E0EE0FFF1FE15D9C
:1010B000FC4F80819181089508950895FF920F93C8
:1010C0001F93CF93DF93F82E092F162FD72FC42FFE
:1010D000222349F081E0809345030E946825909384
:1010E000440380934303809145038823A1F08091BA
:1010F0004303909144030E948025069760F0EF2DF2
:10110000F02FA12FBD2F90E080E0D0E08C179D073D
:1011100044F010924503DF91CF911F910F91FF9002
:101120000895219131912D933D930196EFCFCF9268
:10113000DF92EF92FF920F931F93CF93DF93E82FED
:10114000F82F71110BC0682F782FDF91CF911F916D
:101150000F91FF90EF90DF90CF900895062F10E051
:10116000C72FD0E0E82EF12CC8016BE270E00E949E
:10117000162D9B014BE2469FC001479F900D112405
:10118000081B190B86E0809FB001819F700D112410
:101190004FEF50E0CA018C1B9D0B8E9DD0018F9D9F
:1011A000B00D9E9DB00D11248B2FC69F8001C79F4F
:1011B000100DD69F100D1124012F11276A01C01A9E
:1011C000D10ACE9C8001CF9C100DDE9C100D112405
:1011D0006A01C61AD70ACC9EB001CD9E700DDC9E66
:1011E000700D1124672F7727461B570B4E9DE0018A
:1011F0004F9DD00D5E9DD00D11247D2F22303105E5
:1012000021F148F42115310589F02130310561F0D3
:101210007B2F812F0BC023303105D9F024303105CD
:10122000B9F7ED2F7B2F17C07E2FE12FF0E0EC53A5
:10123000FE4F6491E72FF0E0EC53FE4F7491E82FDE
:10124000F0E0EC53FE4F849180CFEB2F8D2F7F2F5A
:10125000EDCF712FEB2F8F2FE9CFE82F86FDE09593
:101260002E2F2F7086FD2F5FE695E695E695E670AA
:10127000F0E0E95EFC4F9181929F902D212D112489
:1012800092959F702295207F922B2081920F87FD4F
:10129000919580E8890F0895BC019FEF613E8EE132
:1012A000780740F49B0195E0369527959A95E1F7EC
:1012B00098E0920F41E0E42FE90FFF27FF1F9F0105
:1012C00035952795822F229FF001239FF00DF00D79
:1012D00011246E177F0738F49FEF920F941758F779
:1012E0008FEF840F08952F3FE9F341E0420FF6CFCF
:1012F00088E090E00C94F22DAB01BC0188E090E016
:101300000C94102EECEAF4E089E1808311828FEFD7
:10131000828387ED83838FE78483608171818281FB
:1013200093810C947C09382FE4E1F1E090E080E0B7
:101330002081722F7F70731309C022952F7026139E
:1013400005C0DA01A80FB11D9C938F5F9F5F9E338C
:1013500019F03496883061F70895E0912503F091F3
:1013600026030994E0912103F09122030994DF926E
:10137000EF92FF920F931F93CF93DF93FC01C081F5
:101380008DE0C89FC02D11241DE01C0F012F1F33BD
:1013900008F00EE36091AD047091AE048091AF044B
:1013A0000E949708F62EE72ED82ED0E0C01760F0E6
:1013B00081E01E3308F080E0DF91CF911F910F9103
:1013C000FF90EF90DF9008952D2D4E2D6F2DCE01C3
:1013D0000E94B2092196EACFAF92BF92CF92DF92DC
:1013E000EF92FF920F931F93CF93DF93FC01C08185
:1013F0008DE0C89FC02D11241DE01C0F012F1F334D
:1014000008F00EE3D091AD04E090AE04F090AF048C
:101410006D2F7E2D8F2D0E949708D62EC72EB82EA9
:101420006091B0046D0F7E2D8F2D0E949708F62ECF
:10143000E72EA82ED0E0C01778F081E01E3308F028
:1014400080E0DF91CF911F910F91FF90EF90DF909F
:10145000CF90BF90AF900895FE01EE0FFF1FEE0FEB
:10146000FF1FE95EFE4F80812A2D4E2D6F2D80FDDE
:1014700003C02B2D4C2D6D2DCE010E94B20921965B
:10148000DACF8F929F92AF92BF92CF92DF92EF927C
:10149000FF920F931F93CF93DF93FC01C0818DE0E8
:1014A000C89FC02D11244DE0B42EBC0EAB2CFEE322
:1014B000FB1510F43EE3A32E9090AE048090AF0491
:1014C0002091DA043091DB048091B00486958695F2
:1014D00010E000E0289F012D389F000D111D112400
:1014E00080E4800F0E942D0990E8E92EE80E802FFD
:1014F0000E942D098058D0E08E01000F111F000FAF
:10150000111F0C5E1E4F0E2C000CFF08C82E880FFA
:10151000DD08CA1590F081E09DE39B1508F480E09A
:10152000DF91CF911F910F91FF90EF90DF90CF90BF
:10153000BF90AF909F908F900895F8018281805264
:10154000990B8E9DB0018F9D700D9E9D700D112485
:1015500081818057990B8C9D90018D9D300D9C9DB4
:10156000300D1124620F731F77FF02C061587F4F47
:10157000660F672F661F770B8091AD04680F792D7A
:10158000882D0E949708472F282FCE010E94B2096C
:101590000C5F1F4F2196BDCFBF92CF92DF92EF928B
:1015A000FF920F931F93CF93DF93FC01C0818DE0D7
:1015B000C89FC02D11243DE0F32EFC0EDF2CFEE36E
:1015C000FF1510F42EE3D22EC090AE04B090AF04FD
:1015D0002091B00480E4E82E3E2D329F312D11245D
:1015E000E32ED0E08E01000F111F000F111F0C5EC3
:1015F0001E4FCD1578F081E03DE33F1508F480E003
:10160000DF91CF911F910F91FF90EF90DF90CF90DE
:10161000BF900895F801828182958F706091AD042A
:101620008E9D600D11247C2D8B2D0E949708472FD5
:10163000282FCE010E94B2090C5F1F4F2196D9CFEF
:10164000DF92EF92FF920F931F93CF93DF938C0162
:10165000D090AE04D091AF04C091AD04EC2EF12C2B
:101660000E94D12D282FC7018C549F4F68E671E04E
:101670000E942A2D8E199F0997FD039695958795AF
:101680009595879523706C2F289F600D11247D2DD3
:101690008D2F0E949708472F282FC801DF91CF91E7
:1016A0001F910F91FF90EF90DF900C94B209FF9281
:1016B0000F931F93CF93DF93FC01C281C11128C008
:1016C0002091B00430E1230F08F42FEF4091DA04A9
:1016D0005091DB0490E080E0429F812D529F800D6D
:1016E000911D11246AE070E00E94162D892B49F4A7
:1016F0000E94D12D6EE170E00E942A2D80960E94FA
:10170000200B8C2FDF91CF911F910F91FF900895A7
:10171000C0818DE0C89FC02D11248DE0F82EFC0EF5
:101720000F2DFEE3FF1508F40EE3D0E010E0C01724
:10173000D10734F0C1E08DE38F1518F7C0E0E1CF99
:10174000CE010E94200B2196F2CFDF92EF92FF9202
:101750000F931F93CF93DF93FC01C0818DE0C89F4F
:10176000C02D11240DE00C0FF02E0F3310F08EE37E
:10177000F82EE090AE04D090AF042091DA043091BE
:10178000DB048091B0048695869570E060E0289F28
:10179000612D389F600D711D1124162FD0E0CF15DB
:1017A00060F081E00E3308F080E0DF91CF911F916F
:1017B0000F91FF90EF90DF900895612F7E2D8D2D7A
:1017C0000E949708472F282FCE010E94B209219628
:1017D000E6CFBF92CF92DF92EF92FF920F931F93CB
:1017E000CF93DF93FC01C0818DE0C89FC02D1124F1
:1017F0000DE00C0FD02E0F3310F03EE3D32EC0902F
:10180000AE04B090AF044091DA045091DB04209113
:10181000B0042695269590E080E0429F812D529F4E
:10182000800D911D1124182FD0E0CE01880F991F33
:10183000880F991F9C012C5E3E4F7901CD1570F0E9
:1018400081E00E3308F080E0DF91CF911F910F917E
:10185000FF90EF90DF90CF90BF900895F7016181E6
:10186000611B7C2D8B2D0E949708472F282FCE01BE
:101870000E94B209F4E0EF0EF11C2196DFCFBF9277
:10188000CF92DF92EF92FF920F931F93CF93DF934C
:10189000FC01C0818DE0C89FC02D11240DE00C0F0C
:1018A000D02E0F3310F03EE3D32EC090AE04B09094
:1018B000AF044091DA045091DB042091B0042695E6
:1018C000269590E080E0429F812D529F800D911DD2
:1018D0001124182FD0E0CE01880F991F880F991F6F
:1018E0009C012C5E3E4F7901CD1570F081E00E33E6
:1018F00008F080E0DF91CF911F910F91FF90EF9062
:10190000DF90CF90BF900895F7016281611B7C2D1D
:101910008B2D0E949708472F282FCE010E94B209D5
:10192000F4E0EF0EF11C2196DFCF8F929F92AF92E1
:10193000BF92CF92DF92EF92FF920F931F93CF93BC
:10194000DF93FC01C0818DE0C89FC02D11245DE0B4
:10195000B52EBC0EAB2CFEE3FB1510F44EE3A42E0B
:101960009090AE048090AF042091DA043091DB04B3
:101970008091B0048695869510E000E0289F012DA7
:10198000389F000D111D112480E4800F0E942D0945
:101990008058990B7C01EE0CFF1C802F0E942D09B2
:1019A0008058990B6C01CC0CDD1CD0E08E01000F2F
:1019B000111F000F111F0C5E1E4FCA1590F081E021
:1019C0009DE39B1508F480E0DF91CF911F910F916B
:1019D000FF90EF90DF90CF90BF90AF909F908F904F
:1019E0000895F80182818052990B8E9DB0018F9DE0
:1019F000700D9E9D700D112481818057990B8C9DD7
:101A000090018D9D300D9C9D300D1124620F731F30
:101A100077FF02C061587F4F660F672F661F770BF5
:101A20008091AD04680F792D882D0E949708472F6B
:101A3000282FCE010E94B2090C5F1F4F2196BDCF07
:101A40006F927F928F929F92AF92BF92CF92DF92CE
:101A5000EF92FF920F931F93CF93DF93FC01C0810E
:101A60008DE0C89FC02D11247DE0972E9C0E892CFF
:101A7000FEE3F91510F46EE3862E7090AE046090CC
:101A8000AF042091DA043091DB048091B004869594
:101A9000869510E000E0289F012D389F000D111D54
:101AA000112480E4800F0E942D098058990B7C013D
:101AB000EE0CFF1CE80EF91E802F0E942D098058A5
:101AC000990B6C01CC0CDD1CC80ED91ED0E08E0128
:101AD000000F111F000F111F0C5E1E4F58E3A52EA3
:101AE000B12CC815A0F081E09DE3991508F480E0C1
:101AF000DF91CF911F910F91FF90EF90DF90CF90EA
:101B0000BF90AF909F908F907F906F900895F80155
:101B10008181805787FD819522812052330B2E9D34
:101B2000B0012F9D700D3E9D700D11249501281B55
:101B3000310987FD33952C9DC0012D9D900D3C9D55
:101B4000900D1124680F791F77FF02C061587F4FF5
:101B5000660F672F661F770B8091AD04680F772D96
:101B6000862D0E949708472F282FCE010E94B20988
:101B70000C5F1F4F2196B5CFBF92CF92DF92EF92AD
:101B8000FF920F931F93CF93DF93FC01C0818DE0F1
:101B9000C89FC02D11242DE0F22EFC0EEF2CFEE389
:101BA000FF1510F49EE3E92ED090AE04C090AF0470
:101BB0004091DA045091DB042091B00426952695DB
:101BC00090E080E0429F812D529F800D911D112455
:101BD000B82ED0E08E01000F111F000F111F0C5EF8
:101BE0001E4FCE1578F081E09DE39F1508F480E04C
:101BF000DF91CF911F910F91FF90EF90DF90CF90E9
:101C0000BF900895F8016281605267FD61958091EF
:101C1000AD048B199181890F680F7D2D8C2D0E9449
:101C20009708472F282FCE010E94B2090C5F1F4F43
:101C30002196D7CF1F93CF93DF93EC010E94D12D34
:101C4000182F0E94D12D612F782F8091AF040E9410
:101C50009708472F282FCE01DF91CF911F910C9429
:101C6000B209FF920F931F93CF93DF93FC01C281C0
:101C7000C11128C02091B00430E1230F08F42FEFE8
:101C80004091DA045091DB0490E080E0429F812D86
:101C9000529F800D911D112465E070E00E94162D69
:101CA000892B49F40E94D12D6EE170E00E942A2D0B
:101CB00080960E941A0E8C2FDF91CF911F910F9169
:101CC000FF900895C0818DE0C89FC02D11248DE044
:101CD000F82EFC0E0F2DFEE3FF1508F40EE3D0E006
:101CE00010E0C017D10734F0C1E08DE38F1518F76D
:101CF000C0E0E1CFCE010E941A0E2196F2CFAF9242
:101D0000BF92CF92DF92EF92FF920F931F93CF93E8
:101D1000DF93FC01C0818DE0C89FC02D11244DE0F0
:101D2000D42EDC0ECD2CFEE3FD1510F43EE3C32EC5
:101D3000B090AD04A090AE042091B00430E050E02B
:101D400040E06FEF7FEF80E090E00E943E2D790150
:101D5000D0E010E000E04C2FCC1508F034C05091DA
:101D6000B104A2ECB4E090E080E00EC02D91241309
:101D70000AC0FC01EE0FFF1FEF54FB4F218D328D87
:101D80002E153F0520F00196851780F397014091AD
:101D9000B004C801249F812D349F800D911D112412
:101DA0002091AF048095382F329F312D1124832F3D
:101DB0006B2D7A2D0E949708472F282FCE010E9465
:101DC000B2092196C8CF81E09DE39D1508F480E01B
:101DD000DF91CF911F910F91FF90EF90DF90CF9007
:101DE000BF90AF900895AF92BF92CF92DF92EF92E3
:101DF000FF920F931F93CF93DF93FC01C0818DE07F
:101E0000C89FC02D11247DE0F72EFC0EEF2CFEE3C1
:101E1000FF1510F46EE3E62EB090AF042091B004ED
:101E200030E050E040E06FEF7FEF80E090E00E9414
:101E30003E2D8901D0E0D12CC12C52E8A52E2C2FAB
:101E4000CE1508F033C03091B104A2ECB4E090E0BC
:101E500080E00EC04D9142130AC0FC01EE0FFF1F3F
:101E6000EF54FB4F418D528D4017510720F00196E2
:101E7000831780F3A8018091B0049601489F212D1B
:101E8000589F200D311D11246A2D621B08F460E05B
:101E90008091AD04680F7FEF8B2D0E949708472F2C
:101EA000282FCE010E94B2092196C9CF81E09DE37F
:101EB0009F1508F480E0DF91CF911F910F91FF9063
:101EC000EF90DF90CF90BF90AF9008952F923F9208
:101ED0004F925F926F927F928F929F92AF92BF923A
:101EE000CF92DF92EF92FF920F931F93CF93DF93E6
:101EF000CDB7DEB72B970FB6F894DEBF0FBECDBFC0
:101F0000682E2DE0629F602D11246983062F035FE8
:101F1000702E0F3310F05EE3752E4090AE0450909B
:101F2000B1045981452F50E05B874A87CA01880F69
:101F3000991F880F991FFC01EC5EFE4F7F01862DD3
:101F400090E09C01220F331FA90146535B4F5B8336
:101F50004A83FC013196F987E887312C212CEA85E8
:101F6000E715E8F081E00E3308F080E02B960FB61D
:101F7000F894DEBF0FBECDBFDF91CF911F910F91BF
:101F8000FF90EF90DF90CF90BF90AF909F908F9099
:101F90007F906F905F904F903F902F900895D090DA
:101FA000AD04F70191818281F091B004F983288515
:101FB00039852F543B4F59018A809B80C62C10E0F5
:101FC000492F50E05D834C83E82FF0E0FF83EE83E0
:101FD000C514C8F02091AF04129F112D11246D2D4E
:101FE000742D812F0E949708472F282F8A859B8563
:101FF0000E94B2098A859B8501969B878A8794E017
:10200000E90EF11CACCFF50181915F014C815D813E
:10201000481B510987812E813F81281B3109449F2C
:10202000C001459F900D900D1124229FA001239F78
:10203000500D500D1124840F951F8230910514F01E
:102040000E944C09F401419151914F019101F98194
:102050004F9F212D5F9F200D311D1124A901481B89
:102060005109CA014F3F510519F010F08FEF90E070
:10207000D80E8095582F150F08F41FEFC394A8CFE2
:10208000FC01608180E00C94660F2091B10431E086
:10209000231B08F420E0FC016081822F0C94660F62
:1020A0002F923F924F925F926F927F928F929F9268
:1020B000AF92BF92CF92DF92EF92FF920F931F9356
:1020C000CF93DF93CDB7DEB72B970FB6F894DEBF73
:1020D0000FBECDBF782E2DE0629F602D1124698345
:1020E000062F035FC02E0F3310F05EE3C52E509015
:1020F000AD044090AE046090B1045981452F50E08A
:102100005B874A87CA01880F991F880F991FFC01B6
:10211000EC5EFE4F7F01872D90E09C01220F331F64
:10212000A90146535B4F5B834A83FC013196F987D3
:10213000E887312C212CEA85EC15E8F081E00E339C
:1021400008F080E02B960FB6F894DEBF0FBECDBF2F
:10215000DF91CF911F910F91FF90EF90DF90CF9083
:10216000BF90AF909F908F907F906F905F904F90B7
:102170003F902F900895F70191818281F091B004F2
:10218000F983288539852F543B4F59018A809B80DC
:10219000D72C10E0492F50E05D834C83E82FF0E00E
:1021A000FF83EE83D614C8F02091AF04129F112D47
:1021B0001124652D742D812F0E949708472F282FF9
:1021C0008A859B850E94B2098A859B8501969B879B
:1021D0008A8794E0E90EF11CAECFF50181915F0191
:1021E0004C815D81481B510987812E813F81281BCD
:1021F0003109449FC001459F900D900D1124229FED
:10220000A001239F500D500D1124840F951F823083
:10221000910514F00E944C09F401419151914F0134
:102220009101F9814F9F212D5F9F200D311D1124B8
:10223000A901481B5109CA014F3F510519F010F07F
:102240008FEF90E08095582F150F08F41FEFD3946F
:10225000A9CFFC01608180E00C9450102091B10462
:1022600031E0231B08F420E0FC016081822F0C94F4
:102270005010DF92EF92FF920F931F93CF93DF9353
:10228000FC01C0818DE0C89FC02D11241DE01C0FF2
:10229000012F1F3308F00EE34091DA045091DB0464
:1022A0002091B00426952695269590E080E0429FE7
:1022B000812D529F800D911D1124D091AF040E9459
:1022C0002D09805887FD8195880F282F3D2F239F4A
:1022D000212D1124822F6091AD047091AE040E94D3
:1022E0009708F62EE72ED82ED0E0C01760F081E0D8
:1022F0001E3308F080E0DF91CF911F910F91FF9086
:10230000EF90DF9008952D2D4E2D6F2DCE010E9460
:10231000B2092196EACFE0912303F09124030994B6
:102320006F927F928F929F92AF92BF92CF92DF92E5
:10233000EF92FF920F931F93CF93DF93CDB7DEB74A
:1023400028970FB6F894DEBF0FBECDBFDC01129602
:102350008C91882371F040E060E080E00E948B1156
:10236000E7E4F3E086E4DF011D928A95E9F7109235
:10237000460387E4C82E83E0D82E00E077247A94C1
:1023800090EDA92EB12C20EC622E3FE2832E912CF1
:10239000760110E0111178C080914603811174C05C
:1023A0000E94D12D853595400CF06EC0F6017082EB
:1023B000AE014F5F5F4F602F812F0E9493098823EA
:1023C000B1F0F7012081E981F0E0213D08F464C01B
:1023D000205D330B629EC001639E900D1124B401F9
:1023E0000E94162D262F4FEFCF010E94B2091F5FCA
:1023F000FFEFEF1AFF0A153069F60F5F25E0C20EF6
:10240000D11C0E3029F6809146038F5F8D3108F480
:102410004DC0109246038CEF9FEF24E066E473E01A
:102420004EEFFB01E81BF90B3EE0243051F4DF01D5
:10243000A80FB91F15965C9115975F3F11F415967B
:102440004C9350815F3F11F4408351833150359656
:102450003111EBCF215001962111E3CF80E0289676
:102460000FB6F894DEBF0FBECDBFDF91CF911F91A5
:102470000F91FF90EF90DF90CF90BF90AF909F9023
:102480008F907F906F900895D7018C9181508E3FEF
:1024900008F08ECF8C938CCF279DC0011124B501FD
:1024A0000E94162D462F20E060E09ECF80934603C9
:1024B000D5CFCF92DF92EF92FF920F931F93CF93DE
:1024C000DF93CDB7DEB728970FB6F894DEBF0FBE07
:1024D000CDBFFB018281D12C882381F0AE014F5FFB
:1024E0005F4F608181810E949309D82E1092DE0493
:1024F0001092DF041092E0041092E104C090900367
:102500000D2D10E0C8018C0D911D099764F188E034
:1025100090E07C01E01AF10AB8016F567C4FA701E8
:1025200081E993E00E94E12DB80167567C4FA70135
:1025300089E993E00E94E12DA701440F551FB801DE
:10254000660F771F67557C4F89EA93E00E94E12D63
:10255000B8016F557C4FA70181EA93E00E94E12DFD
:10256000CA94C092900360919003DE01119620E01E
:10257000822F860FD21212C08093900381E028969A
:102580000FB6F894DEBF0FBECDBFDF91CF911F9184
:102590000F91FF90EF90DF90CF9008953D9190E0E4
:1025A000AC0140575C4F74E0379FF00111248F015C
:1025B0000C5E1E4FF8017181FA017183F80172817E
:1025C000FA017187318B880F991FFC01E057FC4F8E
:1025D000128E118E2F5FCCCF089508950E94EC12B9
:1025E0000C94ED128F929F92AF92BF92CF92DF9296
:1025F000EF92FF920F931F93CF93DF936091B903F4
:102600007091BA038091BB039091BC030E94AA25EC
:102610006B017C018B010E947425AB01BC014093CE
:10262000B9035093BA036093BB037093BC038091CA
:10263000DE049091DF04A091E004B091E1048F3FAB
:102640002FEF9207A207B207C9F0EE24FF2446013C
:10265000570180949094A094B09488169906AA0685
:10266000BB0608F041C08FEF9FEFDC018093DE04D2
:102670009093DF04A093E004B093E104A091900351
:10268000E0E9F3E02A2F30E0E801C095D095A313EC
:1026900030C020939003F090BD03F11008C0C091AA
:1026A000AC048C2F8370C695C695811101C0C0E023
:1026B00080910401813009F441C048F1823009F46D
:1026C00004C1833009F40BC1F1101CC1DF91CF911B
:1026D0001F910F91FF90EF90DF90CF90BF90AF9040
:1026E0009F908F900C94EE128C0D9D1DAE1DBF1D02
:1026F000BDCF818D928DC817D90720F421503F5F3F
:102700003296C5CF800F911F928F818FF8CF109294
:102710008D034093DA045093DB046093DC047093E0
:10272000DD0489E2E0E9F3E0A1EBB4E001900D9271
:102730008A95E1F781E080930401C6CF809105017D
:10274000C8132CC09091AC0493702091060130E026
:1027500081E09217130609F480E0817080938F0363
:10276000C53108F032C0EC2FF0E0E754FC4E0C9479
:102770005D2DD013F01306140B14101415141A1435
:102780001F14241429142E14331438143D14421425
:1027900047144C14511456145B14601481E0DDCFBF
:1027A000882311F100918D038DE0089F002D1124E5
:1027B000DDE0D00FED2EDF3310F08EE3E82E10E0D9
:1027C0000E1528F081E0DE3378F080E00DC020E0C7
:1027D00040E060E0C8010E94B2090F5F1F4FF0CFD8
:1027E0008DE893E00E94B70990918D039F5F9093CD
:1027F0008D03811169CF82E08093040180918F0362
:10280000811162CFC11160CF83E095CF8DE893E055
:102810000E94EC09E9CF8DE893E00E94CC0AE4CF56
:102820008DE893E00E943911DFCF8DE893E00E949C
:10283000A50BDACF8DE893E00E94E90BD5CF8DE8A8
:1028400093E00E943F0CD0CF8DE893E00E94BC0D36
:10285000CBCF8DE893E00E94410AC6CF8DE893E08C
:102860000E94950CC1CF8DE893E00E94200DBCCF53
:102870008DE893E00E94570BB7CF8DE893E00E945C
:10288000310EB2CF8DE893E00E949011ADCF8DE86C
:1028900093E00E947F0EA8CF8DE893E00E94F30E94
:1028A000A3CF8DE893E00E9445109ECF8DE893E082
:1028B0000E94401099CF8DE893E00E942E1194CF92
:1028C0008DE893E00E9429118FCFC093050180917C
:1028D000AC048370809306010E94AD0995CF60918E
:1028E000DA047091DB048091DC049091DD040E9495
:1028F000AA25603171058105910508F4E5CE109295
:102900000401E2CEDF91CF911F910F91FF90EF90E4
:10291000DF90CF90BF90AF909F908F900895E091FF
:102920001F03F091200309951092B1048FEF9FEFE0
:102930009093CB048093CA049093CD048093CC04ED
:102940009093CF048093CE049093D1048093D004CD
:102950009093D3048093D2049093D5048093D404AD
:102960009093D7048093D6049093D9048093D8048D
:10297000109290039093AA038093A9039093AC03C1
:102980008093AB039093AE038093AD039093B00319
:102990008093AF039093B2038093B1039093B403F9
:1029A0008093B3039093B6038093B5039093B803D9
:1029B0008093B7030E943624811104C00E94B02482
:1029C0000E9482090E9478096093AC047093AD0460
:1029D0008093AE049093AF048FE78093B0046C7F34
:1029E00061F40E9482090E9478096093AC0470939C
:1029F000AD048093AE049093AF0408958093BD031B
:102A000008959091AC0481E0890F83709C7F892B9D
:102A10008093AC04837011F4109204016091AC04B3
:102A20007091AD048091AE049091AF040C947C0938
:102A30008091AC04982F969596959F5F9F738370B5
:102A4000953188F4990F990F892B8093AC041092DB
:102A500004016091AC047091AD048091AE0490913A
:102A6000AF040C947C098460F0CF8091AC04845056
:102A70008093AC04982F9C7F21F4837080658093B1
:102A8000AC04109204016091AC047091AD0480918B
:102A9000AE049091AF040C947C09ECEAF4E08181DF
:102AA000885F818360817181828193810C947C092C
:102AB000ECEAF4E0818188508183608171818281B8
:102AC00093810C947C09ECEAF4E0228130E1230F3D
:102AD00008F42FEF228360817181828193810C94AD
:102AE0007C09ECEAF4E0228130E1231B08F420E0C9
:102AF000228360817181828193810C947C09209171
:102B0000AF0430E1230F08F42FEF283D60F4209349
:102B1000AF046091AC047091AD048091AE049091CB
:102B2000AF040C947C0987ED8093AF04F2CFECEAFC
:102B3000F4E0238130E1231B08F420E0238360814B
:102B40007181828193810C947C09ECEAF4E0248108
:102B500030E1230F08F42FEF24836081718182819B
:102B600093810C947C09ECEAF4E0248130E1231B8E
:102B700008F420E0248360817181828193810C9428
:102B80007C09ECEAF4E0982F990F990F808183700B
:102B9000892B8083109204016081718182819381ED
:102BA0000C947C0965E784E70C946D17CF930E9421
:102BB000A41784E70E941F1685E70E941F16C0E035
:102BC00021E041E061E08C2F0E94B116CF5FCE334F
:102BD000B9F765E784E7CF910C948017E2E0F6E05F
:102BE0006083418324E630E042E050E0BF01880F7B
:102BF0000C942E180F931F93CF93DF93082F000F81
:102C0000EB0114E210930206E3E0F6E0DE018D91A1
:102C1000819386E0E331F807D1F724E630E041E123
:102C200050E062E076E0802F0E942E18105F6096E0
:102C3000143B41F7DF91CF911F910F910895CF93EE
:102C4000DF93C82F4BE06DEF0E94EE1540E06AE085
:102C50008C2F0E94EE158FE39CE90197F1F700C0DD
:102C6000000040E060E08C2F0E94EE1540E061E043
:102C70008C2F0E94EE1540E066E08C2F0E94EE152E
:102C800040E06DEF8C2F0E94EE15D0E040E06D2FFC
:102C90008C2F0E94EE15DF5FD231C1F740E06D2F1F
:102CA0008C2F0E94EE15DF5FD432C1F740E06D2F0C
:102CB0008C2F0E94EE15DF5FD43BC1F74BE06DEF28
:102CC0008C2F0E94EE1541E06AE08C2F0E94EE15D9
:102CD00040E06DEF8C2FDF91CF910C94EE158E3389
:102CE000910520F5880F991F880F991FFC01E45F5B
:102CF000FD4F5281338180818370E18170E9879F2C
:102D0000C00111248E519B4FE80FF92FF11DB4978C
:102D10006083FC01E50FF11DB4974083830F911D83
:102D2000FC01B497208381E08093E3030895FF9230
:102D30000F931F93CF93DF93182F062FF42ED0E01D
:102D4000C0E02F2D402F612FCE010E946F162196DB
:102D5000CE33D105B1F7DF91CF911F910F91FF9045
:102D600008958F929F92AF92BF92CF92DF92EF928F
:102D7000FF920F931F93CF93DF93862E082F10E0BF
:102D8000F801EE0FFF1FEE0FFF1FE45FFD4F818183
:102D9000682F6452770B6B01628170E0CB018497DE
:102DA000EC0197FD279673E0D595C7957A95E1F7E5
:102DB000638170E07B01A4E2EA1AF108F701F7FCF5
:102DC000379633E0F595E7953A95E1F758E0A52E6B
:102DD000B12CB5010E942A2D982EC701B5010E9481
:102DE0002A2D382F000F111F000F111FD801A45FCB
:102DF000BD4F8C918370E82EF12C8601D7FE02C066
:102E0000095F1F4F83E0159507958A95E1F752E119
:102E10005E9DC0015F9D900D112481549C4F080F51
:102E2000192F111DD801BC90C60168E070E00E9406
:102E30002A2D61E070E0DB0102C0AA0FBB1F8A955A
:102E4000E2F7CD01882009F43FC08B29D8018C938B
:102E500052E15E9DC0015F9D900D112481549C4FF5
:102E6000C80FD92FD11D588181E090E001C0880F93
:102E70009A94EAF7442359F1852B888342E14E9DC9
:102E8000C0014F9D900D112481549C4FE80FF92FE4
:102E9000F11D408181E090E001C0880F3A95EAF78A
:102EA0002223C1F0842B808381E08093BE03DF91D5
:102EB000CF911F910F91FF90EF90DF90CF90BF9037
:102EC000AF909F908F90089580958B21BFCF809574
:102ED0008523D3CF80958423E6CFCF93C62F9091BF
:102EE000E303992349F062EE74E00E94FA1562E769
:102EF00075E08C2F0E94FA151092E303CF9108958C
:102F0000FF920F931F93CF93DF93F82ED62F8091CC
:102F1000BE03882399F00FEB13E0C0E0F801419164
:102F20008F016C2F8F2D0E94EE15F80141896C2FB7
:102F30008D2F0E94EE15CF5FC23181F7DF91CF91C7
:102F40001F910F91FF9008951092B9008CE080932B
:102F5000B8000895EF92FF920F931F93CF93DF93E2
:102F6000182FEB011092BC0084EA8093BC000E94F1
:102F700068257C018091BC0087FF0DC08091B9005D
:102F8000887F8830D9F08091B900887F8031B1F096
:102F90008FEF9FEF0CC0CF3FDC0761F30E946825E5
:102FA0008E199F098C179D0728F38EEF9FEFDF91F5
:102FB000CF911F910F91FF90EF9008951093BB0058
:102FC00084E88093BC000E9468258C018091BC003D
:102FD00087FF0AC08091B900887F883111F0803462
:102FE000B9F690E080E0E3CFCF3FDC0779F30E94B1
:102FF0006825801B910B8C179D0740F3D6CF0F934C
:103000001F93CF93DF93EB018093BB0084E8809301
:10301000BC000E9468258C018091BC0087FF11C014
:103020002091B900287F81E090E0283211F490E0EF
:1030300080E0919581959109DF91CF911F910F913A
:103040000895CF3FDC0741F30E946825801B910B58
:103050008C179D0708F38EEF9FEFEECFCF92DF9294
:10306000EF92FF920F931F93CF93DF936B018A012F
:103070007901B9010E94AA17E6010C0D1D1DC017A8
:10308000D10761F424E92093BC00DF91CF911F9117
:103090000F91FF90EF90DF90CF90089597FDF2CFC2
:1030A000B70189910E94FF17EACF9093E9038093BB
:1030B000E8030895E091E803F091E903309721F0E7
:1030C0000190F081E02D099480E00895E091E803FB
:1030D000F091E903309799F020911301222359F0E0
:1030E00020911A0627FF07C0DC012C9111962C9322
:1030F000119725E02C930280F381E02D0994089527
:103100002091E6033091E7032817390771F0909377
:10311000E7038093E603E091E803F091E903309739
:1031200021F00680F781E02D099408952091E403B1
:103130003091E5032817390771F09093E5038093E8
:10314000E403E091E803F091E903309721F0008473
:10315000F185E02D0994089585B7806885BF85B70E
:10316000806885BF0895089508950C94B318089554
:103170000C94B7180E94AC180E94B4180C94B5189F
:1031800081E008950E945F250E945A070E9411263F
:103190000C94B8185F926F927F928F929F92AF9229
:1031A000BF92CF92DF92EF92FF920F931F93CF9334
:1031B000DF93CDB7DEB72A970FB6F894DEBF0FBE08
:1031C000CDBF0E94C0070E94C018882309F478C0B0
:1031D0009BEEA92E93E0B92E10E000E088248394A2
:1031E000912C502E802F0E9453087C01F501C19034
:1031F000D1905F01C816D90609F45CC0809188049B
:1032000081FD0E945C0890E080E0CE24DF24340140
:10321000082E02C0660C771C0A94E2F7960126215C
:103220003721232B09F441C08E835F82E620F720EB
:1032300081E0EF2809F480E088870E94682581609A
:10324000782F9A8789874E815F8168858A850E9459
:103250008719000F111FF801E551FC4F8081918102
:1032600068267926718260820E945A189091EA033A
:103270008917B9F10E945A188093EA032A960FB66B
:10328000F894DEBF0FBECDBFDF91CF911F910F919C
:10329000FF90EF90DF90CF90BF90AF909F908F9076
:1032A0007F906F905F900C94820201968E30910512
:1032B00009F0ADCF0F5F1F4F0530110509F091CF19
:1032C0008FEF89838A831B820E9468258160782F13
:1032D0009D838C8349815A816B818D810E948719DE
:1032E000C3CF2A960FB6F894DEBF0FBECDBFDF91D5
:1032F000CF911F910F91FF90EF90DF90CF90BF90F3
:10330000AF909F908F907F906F905F900895CF9334
:10331000DF93CDB7DEB72B970FB6F894DEBF0FBEA5
:10332000CDBF4F83588769877A878B871E821D821E
:1033300085E0FE013796DE01119601900D928A9587
:10334000E1F749815A816B817C818D819E812B9629
:103350000FB6F894DEBF0FBECDBFDF91CF910C94B6
:103360006020FC01808191810C942B23882309F437
:10337000FFC08238B9F40E945A1881FDF9C089E370
:103380000E9459230E94CD232FEF81EE94E021501B
:1033900080409040E1F700C0000089E30E94602374
:1033A0000C94CD238338A1F40E945A1880FDE0C00C
:1033B00083E50E9459230E94CD232FEF81EE94E0F4
:1033C000215080409040E1F700C0000083E5E6CF47
:1033D0008438A1F40E945A1882FDCAC087E40E9472
:1033E00059230E94CD232FEF81EE94E0215080409D
:1033F0009040E1F700C0000087E4D0CF9CEF980F29
:10340000913A18F40E945923CBCF90E2980F98304C
:1034100050F4877091E001C0990F8A95EAF7892FDF
:103420000E948123BDCF9BE5980F933070F4853ABD
:1034300031F0863A39F083E890E00C94801881E806
:1034400090E0FBCF82E890E0F8CF98E5980F9731B5
:1034500008F08EC0883A09F446C0893A09F446C09B
:103460008A3A09F446C08B3A09F446C08C3A09F40A
:1034700046C08B3B09F446C08C3B09F446C08D3AEC
:1034800009F446C0803B09F446C08E3A09F446C0B0
:103490008F3A09F446C0813B09F446C0823B09F4E7
:1034A00046C0833B09F446C0843B09F446C0853BD3
:1034B00009F446C0863B09F446C0873B09F446C080
:1034C000883B09F446C0893B09F446C08D3B09F4AA
:1034D00046C08E3B09F446C08A3B09F446C090E0E2
:1034E00080E00C94961882EE90E0FBCF89EE90E09D
:1034F000F8CF8AEE90E0F5CF85EB90E0F2CF86EB47
:1035000090E0EFCF83EB90E0ECCF84EB90E0E9CF5D
:1035100087EB90E0E6CF8CEC90E0E3CF8DEC90E091
:10352000E0CF83E891E0DDCF8AE891E0DACF82E96D
:1035300091E0D7CF84E991E0D4CF81E292E0D1CF7E
:1035400083E292E0CECF84E292E0CBCF85E292E0BC
:10355000C8CF86E292E0C5CF87E292E0C2CF8FE685
:1035600090E0BFCF80E790E0BCCF8AE292E0B9CF95
:103570000895882309F44BC0823871F40E945A18C8
:1035800081FF45C089E30E9459230E94CD2389E32E
:103590000E9460230C94CD23833859F40E945A185A
:1035A00080FF35C083E50E9459230E94CD2383E527
:1035B000EFCF843859F40E945A1882FF28C087E45C
:1035C0000E9459230E94CD2387E4E2CF9CEF980FFD
:1035D000913AF0F290E2980F983050F4877091E0B1
:1035E00001C0990F8A95EAF7892F0E948723D2CFCD
:1035F0009BE5980F933020F490E080E00C948018C5
:10360000885A873120F490E080E00C949618089551
:10361000882321F00E9481230C94CD2308958823D0
:1036200021F00E9487230C94CD2308958F929F92BE
:10363000AF92BF92DF92EF92FF920F931F93CF93BF
:10364000DF937C01D62FC72FFC01058102950F70F7
:10365000128111110E94A0230E947723D82E882363
:1036600071F0112331F180E28D0F883010F182E08A
:103670000E9418240E94772391E0D82ED926BC2ED0
:10368000B2949FE0B922EB2DF0E0E75BF44E0C948E
:103690005D2D5B1B5B1BAB1BAB1BF21BF91BF91BF3
:1036A000F91B1A1CF91BB51CB51C3F1DF91BF91B96
:1036B000481DD12CE4CF0C2F0F70C07F11F0029564
:1036C000007F1123A9F0002359F080E28D0F88308C
:1036D00010F0D11109C0802F0E9481230E94CD23B8
:1036E0008D2F0E94B61914C0802F0E949223F6CF0E
:1036F0008D2F0E94B91A002359F080E28D0F883077
:1037000010F0D11124C0802F0E9487230E94CD2366
:10371000DD2009F4C4C10E94732380FDC0C1F701FC
:1037200012820E946D230E94F321C7010E945B1D3B
:103730000E946D23DF91CF911F910F91FF90EF9029
:10374000DF90BF90AF909F908F900C941422802FA9
:103750000E949823DBCFFC2FFF70BF2EC07FC032AA
:1037600019F0B29480EFB822DD2369F0D13049F12D
:10377000112391F1002351F1F701858180FFB0CF32
:103780008F70858323C0112381F0011106C00E9430
:10379000B4238B290E94081BBBCF0130C1F70E94C4
:1037A000B4238B290E94BA23B3CF011106C00E9413
:1037B000C3238B2D0E940F1BABCF013009F4A8CF80
:1037C000F6CF112329F0063008F0A2CF8B2DE2CFDF
:1037D000053008F09DCFEDCF002359F38D2F0E94C7
:1037E000B91A96CF8C2F86958695837079F08130A3
:1037F000B9F098E0B91609F459C0B91608F488CFA1
:1038000086EF8B0D823008F451C082CF8D2F9C2F14
:103810009370111102C090E080E00E94801878CF70
:103820008D2F9C2F9370111102C090E080E00E94B8
:1038300096186ECF8C2F837009F04BC0111136C0D3
:103840002D2F229526952770220F220F6D2F6F7036
:10385000862E912CB12CA12C022E04C0880C991C10
:10386000AA1CBB1C0A94D2F760E070E0CB01D4FF25
:103870000FC06FE070E080E090E004C0660F771F3B
:10388000881F991F2A95D2F760957095809590951D
:10389000C695C695C370C23071F0A0F46829792925
:1038A0008A299B29C13091F00E94A5210E945A18B3
:1038B0000E9482022DCF682979298A299B290E949A
:1038C000B721F4CF0E94A521C501B4010E94932124
:1038D000EDCF8695112311F08C2F8170882331F361
:1038E0002D2F229526952770220F220F6D2F6F7096
:1038F000862E912CB12CA12C022E04C0880C991C70
:10390000AA1CBB1C0A94D2F760E070E0CB01D4FF84
:103910000FC06FE070E080E090E004C0660F771F9A
:10392000881F991F2A95D2F760957095809590957C
:10393000C695C695C370C23051F080F468297929C4
:103940008A299B29C13071F00E946A22AFCF682971
:1039500079298A299B290E947C22A8CF0E946A2269
:10396000C501B4010E945822A1CFE0E2ED0FE5317C
:1039700008F066C0F0E0E154F34E0C945D2DD41CC9
:10398000D41CD41CD41CD41CD41CD41CD41CD41CB7
:10399000D41CD41CD41CD41CD41CD41CD41CE51C96
:1039A000F31CFA1C011D0B1DDF708C2F8F7111236E
:1039B00031F00E94F3218D2F0E94081B1ACF0E9424
:1039C00014228D2F0E940F1B14CF112341F00530BC
:1039D00008F00FCF8C2F8F710E9437220ACF06304C
:1039E00008F007CFF7CF8C2F8F71112339F00E9489
:1039F000F321FFCE8C2F8F711123C9F30E94142263
:103A0000F8CE112329F08C2F8F710E94DE21F1CE88
:103A10000E94D921EECE112349F0CF718C2F0E9444
:103A2000F32163E08C2F0E940324E3CE81E00E9407
:103A30001824023008F4DDCE82E00E941824D9CE8A
:103A4000112349F0002321F08D2F0E94B619D1CE09
:103A50008C2F8F71CCCF002379F0D93349F4FFEF4D
:103A600027EE83E0F15020408040E1F700C00000E5
:103A70008D2F0E94B91ABDCE8C2F8F71BFCF4C2FC6
:103A80004F706D2FC7010E94DB040E94092140CEB8
:103A90004C2F4F706D2FC7010E94DE0439CEDF918D
:103AA000CF911F910F91FF90EF90DF90BF90AF905B
:103AB0009F908F9008950F931F93CF93DF93EC0106
:103AC000988189812B813C81232B39F08F3F19F418
:103AD00081E09F3F19F080E001C081E080FD17C0C8
:103AE000CE010E949402882391F0688179818A81B5
:103AF0000E9435238C010E948E220E949021B801E1
:103B0000CE01DF91CF911F910F910C94161BDF9185
:103B1000CF911F910F9108950E94A0230E94B1237D
:103B20000E94CD2390E080E00E94801890E080E029
:103B30000C9496180E9467230C948C1D0E948F236E
:103B40000C949A1DE92FE295EF70E250EE30E0F40C
:103B5000F0E0E355F24E0C945D2DBB1DBB1DC41D62
:103B6000C41DC61DC41DC41DC41DBB1DBB1DCB1D56
:103B7000C41DC41DCB1D803F19F020F4803E20F4ED
:103B800081E00895843FE1F380E00895803EC0F332
:103B9000813FD1F7F5CF93FB882780F908950E94E4
:103BA0002B230C94A21DCF93DF9300D000D01F9243
:103BB000CDB7DEB70F900F900F900F900F90DF9161
:103BC000CF910895CF93DF9300D000D000D0CDB730
:103BD000DEB726960FB6F894DEBF0FBECDBFDF91DD
:103BE000CF9108951F93CF93DF93C091F60316E012
:103BF0008091F7038C1304C0DF91CF911F9108953A
:103C0000D0E01C9FF0011D9FF00D1124E850FC4FE7
:103C10004081518162817381848195810E94E21D7E
:103C20002196C770E5CF40912804509129046091F6
:103C30002A0470912B0480912C0490912D040C94F3
:103C4000E21D1F93CF93DF9380912D04807FD1F4E9
:103C500080912A048823B1F08091F603D091F70374
:103C6000B0912804C091290440912B0450912C0458
:103C7000A1E0BF3F09F0A0E0BA016095709516E0A1
:103C8000D81304C0DF91CF911F91089521E0411511
:103C9000510521F02A2FCF3F09F020E090E020FDD0
:103CA00038C0189FF001199FF00D1124E850FC4F07
:103CB00021812C132EC020812B132BC02281211196
:103CC00028C0238134812417350700F1241B350BCC
:103CD000283C3105F0F420912D042F7020612093B1
:103CE0002D0426E0289FF001299FF00D1124E350B8
:103CF000FC4F80818F708061808388E294E00E9415
:103D00005B1DDF91CF911F910C94F21D260F371F81
:103D1000DFCF01968770B4CFAF92BF92CF92DF9280
:103D2000EF92FF920F931F93CF93DF93CDB7DEB740
:103D300061970FB6F894DEBF0FBECDBF8C0185E052
:103D4000F801DE011D9601900D928A95E1F7D801E8
:103D50004C9111965C9111971296EC903091280439
:103D60006091290480912B0490912C0421E000970C
:103D700031F06F3F19F421E03F3F09F020E0B22F0E
:103D8000B170BB2E20FD80C1F801C380D480A0900B
:103D90002A04AA2009F427C1C816D906D0F1D601F1
:103DA000A81BB90BCD01FF24F394883C910508F0C2
:103DB000F12C80912D04982F907FFF2009F4CEC024
:103DC000911187C0FE2C651329C0341327C0E11060
:103DD00025C08F70806180932D040E94131E88E29D
:103DE00094E00E945B1D80912D04F80185838F2D46
:103DF00061960FB6F894DEBF0FBECDBFDF91CF91B5
:103E00001F910F91FF90EF90DF90CF90BF90AF90F8
:103E10000895809590958C0D9D1DC5CF81E0CD288E
:103E200031F05F3F19F481E04F3F09F080E080FD01
:103E300024C081E08E25F82FF170DF2E80FF3FC077
:103E40008091F6032091F70336E0821318C04D8766
:103E50005E878D859E850E942B23292F22952F70AA
:103E6000223008F1243030F59F7009F1D801159601
:103E70009C91907FE1F4FB2CBACF80E0DCCF90E006
:103E8000389FF001399FF00D1124E850FC4F6181FB
:103E9000561306C06081461303C062816E110FC0C5
:103EA00001968770D2CF9F7011F0882321F3805E36
:103EB000883008F3C8010E945B1DBD2CDCCFEE20CA
:103EC00009F495CF80912D04816080932D04F12C0D
:103ED0008ECF651314C0341312C0E11010C0F80166
:103EE0008583C8010E945B1D86E0F801A8E2B4E06A
:103EF00001900D928A95E1F70E94131E78CF4D87AD
:103F00005E878D859E850E94CF1D882319F1EE2046
:103F100009F180912D04803270F0209128043091B5
:103F2000290438872F831986DB86CA868C87CE01C1
:103F300007960E945B1D86E0F801A8E2B4E00190BC
:103F40000D928A95E1F70E94211E0E94131EFF2404
:103F5000F3944DCFC8010E945B1DF9CF911113C09E
:103F60007C2DD98AC88A6E2D89890E94D31D88E24A
:103F700094E00E945B1D86E0E8E2F4E0DF011D9220
:103F80008A95E9F7B9CF651312C0341310C0E11058
:103F90000EC0F8018583C8010E945B1DE8E2F4E0D1
:103FA00086E0DF011D928A95E9F7FA2C20CF4D8734
:103FB0005E878D859E850E94CF1D882359F2EE2055
:103FC00049F280912D04803208F4B5CF2091280465
:103FD000309129043A8329831B82DD82CC828E832F
:103FE000CE010196A6CFC816D90638F1F601E81B16
:103FF000F90BCF01F12C883C910508F03DC0FE2C57
:10400000EE2009F4A7CF651326C0341324C0809195
:104010002D0480FD17C0982F907FA1F0D801159630
:104020008C931597903F09F45CCF982F907F905F09
:104030008F70892B15968C9354CF809590958C0D0D
:104040009D1DD8CF86E0F801A8E2B4E001900D9262
:104050008A95E1F7CCCE4D875E878D859E850E943F
:10406000CF1D811168CF80912D04816080932D0434
:10407000C8010E945B1DBBCE7C2DD98AC88A6E2DDB
:1040800089890E94D31D77CFEE2009F463CF4D8735
:104090005E878D859E850E94CF1DF82E882309F4AA
:1040A00059CF86E0F801A8E2B4E001900D928A951C
:1040B000E1F788E294E00E94B1190E94211E1CCF12
:1040C0001F93CF93DF93CDB7DEB72C970FB6F8943D
:1040D000DEBF0FBECDBF4F83588769877A878B8736
:1040E0009C87CE0107960E948C1E882309F442C04B
:1040F0009F8188852A853B85232B39F08F3F19F4D2
:1041000081E09F3F19F080E001C081E080FD08C0A0
:104110004F81588569857A858B859C850E94E21D33
:1041200016E08091F6039091F703891709F467C0B0
:10413000819FC001112488509C4F0E948C1E8823AF
:1041400009F45DC0E091F6031E9FF0011124E850D0
:10415000FC4F4081518162817381848195810E94ED
:10416000E21D8091F60390E0019687709927809375
:10417000F603D7CF86E0FE013796DE011196019057
:104180000D928A95E1F79F8188852A853B85232BAF
:1041900039F08F3F19F481E09F3F19F080E001C0B2
:1041A00081E080FDBDCF2091F70330E0C901019689
:1041B000877099274091F6034817190699F096E001
:1041C000929FD001939FB00D1124A850BC4FFE01C7
:1041D000319601900D929A95E1F78093F7030E9432
:1041E000F21D9ECF0E949E1D1092F7031092F603BF
:1041F00086E0E8E2F4E0DF011D928A95E9F72C966B
:104200000FB6F894DEBF0FBECDBFDF91CF911F91E7
:104210000895EF92FF920F931F93CF93DF938C013A
:10422000892B81F0F12CEE24E394E8012196F8012A
:104230008491843770F4843008F05FC08130B1F02D
:104240008230A1F1DF91CF911F910F91FF90EF90FC
:104250000895853709F44CC008F43DC09CE7980FD9
:10426000903780F78F770E94B91A49C00E5F1F4FB1
:10427000FE01849190E2980F983060F48770FE2DD3
:1042800001C0FF0F8A95EAF78F2F0E94A3230E9497
:10429000CD2302C00E94B6198F2D815030F2EFE974
:1042A000FFE03197F1F700C00000F7CF0E5F1F4F1E
:1042B000FE01849190E2980F983050F48770FE2DA3
:1042C00001C0FF0F8A95EAF78F2F0E94A923DFCF45
:1042D0000E94B91AE1CF0E5F1F4FFE01C491C15079
:1042E000D8F28FE99FE00197F1F700C00000F7CF07
:1042F0000E5F1F4FFE01F490CFCF0E94B6198E01C2
:10430000CBCF08950C9481210E94822160935F0499
:104310007093600480936104909362040C948C1DEC
:1043200008950C9484210F931F9300915F041091C2
:1043300060042091610430916204602B712B822B08
:10434000932B1F910F910C9484210F931F93009135
:104350005F04109160042091610430916204602335
:104360007123822393231F910F910C9484210F9327
:104370001F9300915F0410916004209161043091BB
:10438000620460277127822793271F910F910C9455
:1043900084210C9481210C94C9210E94CB2160932B
:1043A0005B0470935C0480935D0490935E040C94B2
:1043B0008C1D60E070E0CB010C94CD210F931F9316
:1043C00041E050E060E070E08A019B0104C0000F12
:1043D000111F221F331F8A95D2F7C901B8011F91FF
:1043E0000F910C94CD210F931F9341E050E060E0BA
:1043F00070E004C0440F551F661F771F8A95D2F7DF
:1044000080915B0490915C04A0915D04B0915E0486
:104410008A019B01082B192B2A2B3B2BC901B801C0
:104420001F910F910C94CD210F931F9341E050E009
:1044300060E070E004C0440F551F661F771F8A9527
:10444000D2F7CB01BA016095709580959095009157
:104450005B0410915C0420915D0430915E04602344
:104460007123822393231F910F910C94CD210F93DD
:104470001F9341E050E060E070E004C0440F551F1E
:10448000661F771F8A95D2F780915B0490915C0438
:10449000A0915D04B0915E048A019B010827192751
:1044A0002A273B27C901B8011F910F910C94CD21F8
:1044B0000F931F9300915B0410915C0420915D04A5
:1044C00030915E04602B712B822B932B1F910F91E7
:1044D0000C94CD210F931F9300915B0410915C0409
:1044E00020915D0430915E04602371238223932325
:1044F0001F910F910C94CD210F931F9300915B049A
:1045000010915C0420915D0430915E046027712756
:10451000822793271F910F910C94CD2108952EE0AF
:10452000929F800D1124982F977071E001C0770F32
:104530009A95EAF786958695869525E0829FC00133
:10454000112450E040E0A62FB0E0FC01E40FF51F7D
:10455000E25DFB4F60819D01042E02C036952795D8
:104560000A94E2F721702195262727232627208306
:104570004F5F5F4F4530510541F708952EE0929F00
:10458000800D1124982F977086958695869525E045
:10459000829FA001112470E060E080E0FA01E60F44
:1045A000F71FE25DFB4F208130E0092E02C03695F7
:1045B00027950A94E2F721703327062E01C0220FB7
:1045C0000A94EAF7822B6F5F7F4F6530710531F7F0
:1045D0000895BF92CF92DF92EF92FF920F931F93B5
:1045E000CF93DF938C01C0905B04D0905C04E0908B
:1045F0005D04F0905E0480915F0490916004A0914E
:104600006104B0916204C82AD92AEA2AFB2ACFE1C0
:10461000D0E0BC2ED701C6010C2E04C0B695A795DC
:10462000979587950A94D2F780FD0EC0219788F759
:10463000B12C8B2DDF91CF911F910F91FF90EF90B7
:10464000DF90CF90BF900895B8018C2F0E94FB049B
:10465000019761F3EECFCF93DF93EC010E94E92243
:10466000BE01DF91CF910C94FB041F93CF93DF9396
:10467000EB019091F503992331F0CB01DF91CF91BC
:104680001F910C942B23882379F0CB010E94E922FF
:10469000182F682FCE010E948F22BE01812FDF913B
:1046A000CF911F910C94FB04CB010E94BE22182FC6
:1046B000F4CF682F80910701909108010C94162582
:1046C000682F80910701909108010C942125809119
:1046D0000701909108010C942C2580916304859525
:1046E00085958595089580916304877008959091CC
:1046F0006304977081E009F480E008958091870455
:10470000089590918704892B809387040895982FAA
:10471000909580918704892380938704089510924F
:104720008704089590918604892B809386040895C8
:10473000982F90958091860489238093860408950C
:1047400010928604089590918504892B80938504A6
:104750000895982F909580918504892380938504EE
:104760000895109285040895809164040895089531
:104770000C94B72390916404981721F080936404FB
:104780000C94B823089580916404882329F0109232
:10479000640480E00C94B8230895E0910701F0913F
:1047A0000801809187048083E0910701F09108015E
:1047B000808190918604892B8083E0910701F0919C
:1047C0000801808190918504892B808390916404F5
:1047D000992381F0E0910701F09108018081892BF4
:1047E000808380910701909108010E94B224811179
:1047F0000E94C32380910701909108010C946618D0
:1048000008950C94002498E0899F90011124622B54
:10481000609363040E94F3218091630485958595DC
:1048200085950C9401241092630480E00C9401247B
:10483000909163048095892380936304282F2770C7
:1048400071F4282F082E000C330B9217130639F041
:104850008595859585950E9414220C9413240895BE
:104860006FEF7FEF90E080E00C941C2E90E080E0F2
:104870000E94F82D21E08D3E9E4F09F020E0822F0E
:10488000089582E090E00C94EA2D83E090E00C948F
:10489000EA2D84E090E00C94EA2D682F84E090E00B
:1048A0000C94FE2DAB01BC018FE090E00C94102E17
:1048B000AB01BC0183E190E00C94102E60E070E04D
:1048C000CB010C94582460E070E0CB010E9452248C
:1048D0000C945E246DEE7EEF90E080E00E941C2E32
:1048E00060E082E090E00E94FE2D60E083E090E0D6
:1048F0000E94FE2D10925F041092600410926104D9
:104900001092620460E084E090E00E94FE2D60E07E
:1049100085E090E00E94FE2D60E086E090E00E943D
:10492000FE2D6FEF87E090E00E94FE2D40E050E00A
:10493000BA0188E090E00E94102E60E08DE090E0E7
:104940000E94FE2D40E050E0BA0188E190E00E9414
:10495000102E60E087E190E00E94FE2D0C9463240D
:104960000C946A24FC01329680911301882321F073
:1049700080911A069EE187FF96E080E0915008F44E
:10498000089521912223D1F38F5FF8CF9C01FC0180
:1049900032969FEF80E04191461751F09F3F19F406
:1049A000411101C0982F8F5F8630A9F79F3F09F40E
:1049B0000895290F311D97FD3A95F90162830895F5
:1049C000FC01329608962191261303C0DF0111974E
:1049D0001C92E817F907B9F70895E62FE695E695D2
:1049E000E695EE3168F4E80FF92FF11D677021E0CC
:1049F00030E001C0220F6A95EAF78281822B828320
:104A00000895E62FE695E695E695EE3170F4E80F09
:104A1000F92FF11D677021E030E001C0220F6A9587
:104A2000EAF720958281282322830895209113019B
:104A3000222329F020911A0627FD0C94ED240C94D2
:104A4000C62420911301222329F020911A0627FD64
:104A50000C9401250C94E024FC0132968091130102
:104A6000882351F080911A0687FF06C08EE1DF018E
:104A70001D928A95E9F7089586E0F9CF08950C9480
:104A800068020895CF930E943E250E94C0070E94AD
:104A90004125C0E08C2F0E945308892B31F4CF5F51
:104AA000C530C1F780E0CF91089581E0FCCF0E942E
:104AB0009E1D0E945A180E9482020C946B0282E092
:104AC00084BD93E095BD9AEF97BD80936E000895E5
:104AD0002FB7F8948091160690911706A0911806AA
:104AE000B09119062FBF08952FB7F894609116065C
:104AF0007091170680911806909119062FBF08959E
:104B0000CF92DF92EF92FF920F931F932FB7F894FB
:104B1000409116065091170660911806709119067B
:104B20002FBF6A017B01EE24FF248C0130E020E0DE
:104B3000C016D106E206F30650F0481B590BCA0115
:104B40001F910F91FF90EF90DF90CF90089541500B
:104B50005109F3CFAB01BC012FB7F8948091160631
:104B600090911706A0911806B09119062FBF8417CF
:104B70009507A607B70738F0841B950BA60BB70B54
:104B8000BC01CD0108950197A109B109F5CF789431
:104B90001F920F920FB60F9211248F939F93AF9392
:104BA000BF938091160690911706A0911806B091B8
:104BB00019060196A11DB11D809316069093170644
:104BC000A0931806B0931906BF91AF919F918F9152
:104BD0000F900FBE0F901F90189581E08093E0001A
:104BE00080E28093D8001092C9008FE19EE4019783
:104BF000F1F700C0000087E090EBDC01809329060C
:104C000090932A06A0932B06B0932C0688E19CE093
:104C10000FB6F894A895809360000FBE9093600043
:104C2000FFCF0E943624811102C00E94B0240E944E
:104C30004124809388040E94492490E090931B06AD
:104C400080931A060E944524682F70E090E080E06F
:104C50000C9491218091A904089508950F931F93B6
:104C6000CF93DF9300D01F92CDB7DEB78C010E94A7
:104C70006728823011F0843021F584E089831B831A
:104C80000A8382E08093E9008FEF9091E8008150E1
:104C900095FD06C095ED9A95F1F700008111F5CFCD
:104CA0008091E80085FF0DC050E040E063E070E0D7
:104CB000CE0101960E9484288091E8008E7780932F
:104CC000E8000F900F900F90DF91CF911F910F91FF
:104CD0000895CF93DF9300D01F92CDB7DEB7209118
:104CE0002006243031F523E02983805891099B83E5
:104CF0008A8382E08093E9008FEF9091E8008150F1
:104D000095FD06C095ED9A95F1F700008111F5CF5C
:104D10008091E80085FF0DC050E040E063E070E066
:104D2000CE0101960E9484288091E8008E778093BE
:104D3000E8000F900F900F90DF91CF910895CF93DF
:104D4000DF93EC010E946728823011F08430B9F5BE
:104D5000809113018823B1F180911A0687FF32C038
:104D600060E282E08093E9008FEF9091E80081504B
:104D700095FD06C095ED9A95F1F700008111F5CFEC
:104D80008091E80085FF1BC08091130170E050E026
:104D900040E0811104C050E040E068E070E0CE01E6
:104DA0000E9484288091E8008E778093E80080E25A
:104DB000FE01A9E8B4E001900D928A95E1F7DF9138
:104DC000CF91089568E081E0CDCF80911F068111D9
:104DD00009C00E94142A0E94712A8091E200846016
:104DE0008093E200089510921F0608950895089593
:104DF0000C94572542E061EC81E00E94922942E246
:104E000061EC82E00C94922980912206833009F4AF
:104E100062C030F48130D9F1823009F49EC0089527
:104E20008A3009F48AC08B3009F470C0893009F0E7
:104E300051C080912106813209F04CC08091250635
:104E400090912606029708F045C08091E800877F80
:104E50008093E8008091E80082FF38C08091F300E1
:104E60009091F200892798278927029729F4809149
:104E7000F1008B7F813021F48091F1008093A904AF
:104E80008091E8008B778093E8000C94C62980918C
:104E90002106813AF9F48091E800877F8093E80049
:104EA0008091250690912606892B61F460E289E8BD
:104EB00094E070E00E94D3288091E8008B77809383
:104EC000E800089560E090E080E0F3CF8091200654
:104ED0008111C0CF089580912106813AD9F7809140
:104EE000250690912606892BA9F78091E800877FF7
:104EF0008093E8008091E80080FFFCCF809113014F
:104F00008093F1008091E8008E77BDCF80912106DB
:104F1000813201F78091250690912606892BD1F6E2
:104F20008091E800877F8093E8000E94C6298091E5
:104F30002306809313010C949E1D809121068132DB
:104F400049F68091E800877F8093E8000E94C62997
:104F5000809124068093AA04089580912106813AC5
:104F600009F0B8CF8091E800877F8093E8008091B6
:104F7000E80080FFFCCF8091AA04C2CF84B7877F6E
:104F800084BF0FB6F894A8958091600088618093E3
:104F90006000109260000FBE80E880936100109264
:104FA00061000E94BA180E94142A0E94712A8091FE
:104FB000E20084608093E20078940E94FA2C0E94C0
:104FC000C21889E091E00E94551880912006853032
:104FD00019F00E94CA18F9CF0E943F2580911E0641
:104FE000882399F30E944225882379F30E946E2832
:104FF000ECCF0C94FB27292F33272330310571F197
:1050000058F421303105E9F02230310511F190E0FA
:1050100080E030E020E019C021323105C1F12232B8
:105020003105A9F780E490E02AEB33E061157105C2
:1050300061F081E790E029E433E06130710529F007
:10504000E6CF82E190E027E333E0FA013183208369
:1050500008958BE390E02CEF32E0F7CF9927813071
:10506000910579F040F08230910571F0039779F65F
:10507000E4ECF2E002C0E8EFF2E0849190E09F01FE
:10508000E4CFE6EDF2E0F9CFEAECF2E0F6CF89E02A
:1050900090E02EE033E061157105B9F289E090E00F
:1050A00027E233E06130710581F2B1CF0895CF93EB
:1050B000C82F0E945628C093AB04CF9108958091C9
:1050C0002006843011F081E0089582E008958091F7
:1050D000AB04811102C00C945F28089580E189BD62
:1050E00082E189BD09B400FEFDCF8091D8008F7D9B
:1050F0008093D8008091E00082608093E0008091EE
:10510000E00081FDFCCF0895AF92BF92CF92DF9275
:10511000FF920F931F93CF93DF936C01EB018A01F2
:105120000E94E529F82E811123C00115110539F0DF
:10513000F80180819181C81BD90BC80ED91EB12CF2
:10514000A12C2097A9F08091E80085FD22C08091D4
:10515000E8008E778093E80001151105A1F0F801B1
:1051600080819181A80EB91EB182A08285E0F82EBF
:105170008F2DDF91CF911F910F91FF90DF90CF90F6
:10518000BF90AF9008950E94E5298823D1F2F82EB0
:10519000EFCFF60181916F018093F1002197FFEF2E
:1051A000AF1ABF0ACECFFC01809127069091280646
:1051B00086179707A0F06115710529F49091E80012
:1051C0009E779093E80090E06115710551F491117C
:1051D00008C08091E80082FF35C080E00895BC01DE
:1051E000F2CF809120068823C9F18530C9F18091E2
:1051F000E80083FD31C08091E80082FDEACF809114
:10520000E80080FFE1CF2091F3008091F200322F7F
:10521000282F6115710519F02830310558F091E0FB
:105220002830310509F090E02091E8002E77209396
:10523000E800CACF81918093F100615071092F5F1E
:105240003F4FE7CF80912006882341F0853041F021
:105250008091E80083FFBDCF81E0089582E008954A
:1052600083E00895FC018091270690912806861717
:105270009707A0F06115710529F48091E8008E77F9
:105280008093E80090E06115710551F4911108C018
:105290008091E80082FF36C080E00895BC01F2CF23
:1052A000809120068823D1F18530D1F18091E800EA
:1052B00083FD32C08091E80082FDEACF8091E80052
:1052C00080FFE1CF2091F3008091F200322F282F50
:1052D0006115710519F02830310558F091E028303A
:1052E000310509F090E08091E8008E778093E80026
:1052F000CACF84918093F1003196615071092F5F7C
:105300003F4FE6CF80912006882341F0853041F061
:105310008091E80083FFBCCF81E0089582E008958A
:1053200083E00895982F973028F08F708093E900DC
:1053300081E008959093E900242F762F50E098178C
:1053400031F07091EC002091ED005091F00021FDC2
:1053500002C09F5FE8CF3091EB003E7F3093EB00BF
:105360003091ED003D7F3093ED003091EB003160E6
:105370003093EB007093EC002093ED005093F0001D
:105380002091EE0027FDE5CF80E008958091210671
:1053900087FF13C08091E80082FF06C08091E8007B
:1053A0008B778093E80004C0809120068111F2CFB2
:1053B0000895809120068823D9F38091E80080FF2A
:1053C000F8CF8091E8008E77ECCF2091E400309107
:1053D000E50085E69091EC0090FF06C09091E80012
:1053E00090FF06C080E008959091E80092FDFACF0A
:1053F00090912006992391F0953091F09091EB00D7
:1054000095FD10C04091E4005091E5002417350748
:1054100009F381509A01F1F684E0089582E008953D
:1054200083E0089581E008950E94822A0E948A2ADA
:10543000E0EEF0E0808181608083E8EDF0E0808143
:105440008F77808319BCA7EDB0E08C918E7F8C9311
:1054500080818F7E808310921F0608950F931F9383
:10546000CF93DF930E94822A0E948A2AC8EDD0E05F
:1054700088818F77888388818068888388818F7D01
:10548000888319BC1092200610921C0610921E06EA
:1054900010921D0600EE10E0F80180818B7F808362
:1054A00088818160888342E060E080E00E949229E8
:1054B000E1EEF0E080818E7F8083E2EEF0E080819B
:1054C00081608083808188608083F80180818E7F05
:1054D0008083888180618883DF91CF911F910F91B4
:1054E0000895E8EDF0E080818F7E8083E7EDF0E0C5
:1054F00080818160808384E082BF81E080931F0689
:105500000C942E2AE8EDF0E080818E7F808310924B
:10551000E20008951092DA001092E10008951F92BF
:105520000F920FB60F9211242F933F934F935F93D7
:105530006F937F938F939F93AF93BF93EF93FF935B
:105540008091E10082FF0BC08091E20082FF07C0E2
:105550008091E1008B7F8093E1000E94F92C809183
:10556000DA0080FF19C08091D80080FF15C08091BB
:10557000DA008E7F8093DA008091D90080FF94C09A
:1055800080E189BD82E189BD09B400FEFDCF81E0E3
:10559000809320060E94E5268091E10080FF19C0DB
:1055A0008091E20080FF15C08091E2008E7F8093A1
:1055B000E2008091E20080618093E2008091D80057
:1055C00080628093D80019BC85E0809320060E94F9
:1055D000F7268091E10084FF29C08091E20084FFDA
:1055E00025C080E189BD82E189BD09B400FEFDCFFF
:1055F0008091D8008F7D8093D8008091E1008F7ECC
:105600008093E1008091E2008F7E8093E2008091A0
:10561000E20081608093E20080911C06882309F4F7
:1056200049C084E0809320060E94F8268091E10022
:1056300083FF29C08091E20083FF25C08091E100B3
:10564000877F8093E10082E08093200610921C0601
:105650008091E1008E7F8093E1008091E2008E7F57
:105660008093E2008091E20080618093E20042E05A
:1056700060E080E00E9492298091F0008860809331
:10568000F0000E94F626FF91EF91BF91AF919F919C
:105690008F917F916F915F914F913F912F910F90DB
:1056A0000FBE0F901F90189519BC109220060E94F3
:1056B000F32672CF8091E30087FD02C081E0B2CF74
:1056C00083E0B0CF1F920F920FB60F9211242F9349
:1056D0003F934F935F936F937F938F939F93AF937A
:1056E000BF93CF93EF93FF93C091E900CF70809168
:1056F000EC001092E9008091F000877F8093F00029
:1057000078940E949E2B1092E9008091F0008860AE
:105710008093F000C093E900FF91EF91CF91BF918A
:10572000AF919F918F917F916F915F914F913F9139
:105730002F910F900FBE0F901F9018951F93CF932E
:10574000DF93CDB7DEB7AA970FB6F894DEBF0FBED2
:10575000CDBFE1E2F6E08091F100819326E0E932ED
:10576000F207C9F70E9404278091E80083FF44C034
:1057700080912106909122069A3008F03DC0E92FD1
:10578000F0E0EB53F44D0C945D2DCF2BF52BFC2B5F
:10579000F52BFC2B532C752CFC2BCC2CD92C8038C6
:1057A00089F0823849F5809125068F70873020F581
:1057B0008093E9008091EB0085FB882780F91092A7
:1057C000E90006C080911D0690911E06911182602D
:1057D0009091E800977F9093E8008093F1001092F9
:1057E000F1008091E8008E772DC0282F2D7F21F4C5
:1057F0008823D1F0823059F18091E80083FF0AC0FC
:105800008091E800877F8093E8008091EB008062C0
:105810008093EB00AA960FB6F894DEBF0FBECDBF03
:10582000DF91CF911F91089580912306813021F758
:10583000933009F080E080931E061092E900809179
:10584000E800877F8093E8000E94C629D5CF809129
:1058500023068111F2CF809125068F702FEF280F3C
:10586000263050F68093E9002091EB0020FFE5CF31
:10587000933031F48091EB0080628093EB00DDCFB8
:105880009091EB0090619093EB0021E030E001C03B
:10589000220F8A95EAF72093EA001092EA0080919D
:1058A000EB008860EACF8111A7CF109123061F7704
:1058B0008091E3008078812B8093E3008091E80061
:1058C000877F8093E8000E94C6298091E80080FFCE
:1058D000FCCF8091E30080688093E30083E01111A6
:1058E00001C082E08093200687CF8058823008F084
:1058F00083CF80912306909124068C3D23E092076C
:10590000A1F583E08A838AE289834FB7F894DE01A8
:10591000139620E03EE051E2E32FF0E05093570071
:10592000E49120FF03C0E295EF703F5FEF708E2F90
:1059300090E0EA30C0F0C7968D939D932F5F24319D
:1059400059F74FBF8091E800877F8093E8006AE2B3
:1059500070E0CE0101960E94D3288091E8008B77F9
:105960008093E80049CFC096E7CF609125067091FB
:105970002606AE014F5F5F4F0E94F927BC01892BBD
:1059800009F43ACF9091E800977F9093E8008981DD
:105990009A810E943229E1CF803809F02DCF809181
:1059A000E800877F8093E80080911C068093F100D7
:1059B00018CF811121CF90912306923008F01CCF8F
:1059C0008091E800877F8093E80090931C060E94F6
:1059D000C62980911C06882331F084E0809320063C
:1059E0000E94FA2609CF8091E30087FDF6CF81E07F
:1059F000F5CF0895CF9380912006882399F0C09128
:105A0000E900CF708091EC0080FD0EC080E0C82BD3
:105A10001092E9008091E80083FD0E949E2BCF70D8
:105A2000C093E900CF91089580E8F1CFAA1BBB1B7A
:105A300051E107C0AA1FBB1FA617B70710F0A61B8E
:105A4000B70B881F991F5A95A9F780959095BC01AF
:105A5000CD01089597FB072E16F4009407D077FD2B
:105A600009D00E94162D07FC05D03EF49095819533
:105A70009F4F0895709561957F4F0895052E97FB70
:105A80001EF400940E94552D57FD07D00E94632DEF
:105A900007FC03D04EF40C94552D5095409530954D
:105AA00021953F4F4F4F5F4F08959095809570958A
:105AB00061957F4F8F4F9F4F0895EE0FFF1F059009
:105AC000F491E02D0994A1E21A2EAA1BBB1BFD0143
:105AD0000DC0AA1FBB1FEE1FFF1FA217B307E407CD
